:020000040800F2
:1000000000040020C101000831230008312300084A
:1000100001160008312300083123000831230008AD
:100020003123000831230008312300087142000801
:10003000312300083123000831230008F1A1000812
:100040003123000841770008D178000821790008A1
:10005000312300083123000881740008D17400089E
:100060002175000871750008C17500085167000806
:10007000A1670008F167000841680008916800085E
:10008000E168000831690008C1710008C17A000800
:10009000317B0008E17B0008917C000811760008A4
:1000A0003123000831230008519C00083123000847
:1000B000B19D0008F19D0008319E0008918800085C
:1000C000D1890008312300083123000831230008BA
:1000D000312300083123000831230008B1A20008B1
:1000E000A176000891770008E1770008919C00084C
:1000F00031230008312300083123000881690008FA
:1001000031230008217E0008719E00083123000879
:100110003123000831230008119C00083123000816
:10012000D1690008216A0008716A0008C16A0008E4
:10013000116B0008312300083178000831230008D2
:1001400031230008312300083123000851980008AA
:10015000616B0008B16B0008016C000831230008D6
:10016000312300083123000831230008312300081F
:100170008178000831230008F113000831230008BA
:1001800031230008312300083123000831230008FF
:1001900031230008312300083123000831230008EF
:1001A00031230008312300083123000831230008DF
:1001B00031230008312300083123000831230008CF
:1001C00072B62E4880F3098840F20000CCF200009D
:1001D0004EF63471CEF20001086040F20000C0F229
:1001E000F0004EF68851CEF2000108604FF000009A
:1001F000E1EE100A4EF63C71CEF2000108600620D6
:1002000080F31488BFF36F8F0AF09AF94FF05530DE
:100210001B491C4A91423CBF41F8040BFAE71A49BA
:10022000164A91423CBF41F8040BFAE71749184AB5
:10023000184B9A423EBF51F8040B42F8040BF8E702
:1002400000201549154A91423CBF41F8040BFAE7DA
:1002500002F056F8124C134DAC4203DA54F8041B6A
:100260008847F9E701F044F80F4C104DAC4203DA2F
:1002700054F8041B8847F9E702F052B80008002040
:1002800000000020000400200004002048F50008C1
:1002900000080020FC11002000120020C8270020C8
:1002A000C0010008C0010008C0010008C00100082A
:1002B0002DE9F04F2DED108AC1F80CD0D0F80CD0FC
:1002C000BDEC108ABDE8F08F02F072F903F030F94E
:1002D000002383F311882846A047002002F0F8FE8F
:1002E00003F00EF902F044F902F062FD02F060F949
:1002F00003F01EF900DFFEE7000000000000000030
:1003000081F0004102E000BF83F0004330B54FEAC6
:1003100041044FEA430594EA050F08BF90EA020F33
:100320001FBF54EA000C55EA020C7FEA645C7FEAC6
:10033000655C00F0E2804FEA5454D4EB5555B8BFE9
:100340006D420CDD2C4480EA020281EA030382EA5A
:10035000000083EA010180EA020281EA0303362DEC
:1003600088BF30BD11F0004F4FEA01314FF4801CBF
:100370004CEA113102D0404261EB410113F0004FD1
:100380004FEA03334CEA133302D0524263EB430388
:1003900094EA050F00F0A780A4F10104D5F1200E26
:1003A0000DDB02FA0EFC22FA05F2801841F1000181
:1003B00003FA0EF2801843FA05F359410EE0A5F155
:1003C00020050EF1200E012A03FA0EFC28BF4CF086
:1003D000020C43FA05F3C01851EBE37101F000453C
:1003E00007D54FF0000EDCF1000C7EEB00006EEB49
:1003F0000101B1F5801F1BD3B1F5001F0CD34908D3
:100400005FEA30004FEA3C0C04F101044FEA445229
:1004100012F5800F80F09A80BCF1004F08BF5FEAB0
:10042000500C50F1000041EB045141EA050130BD90
:100430005FEA4C0C404141EB010111F4801FA4F133
:100440000104E9D191F0000F04BF01460020B1FA88
:1004500081F308BF2033A3F10B03B3F120020CDAC0
:100460000C3208DD02F1140CC2F10C0201FA0CF09E
:1004700021FA02F10CE002F11402D8BFC2F1200C03
:1004800001FA02F120FA0CFCDCBF41EA0C019040B9
:10049000E41AA2BF01EB0451294330BD6FEA040402
:1004A0001F3C1CDA0C340EDC04F11404C4F12002ED
:1004B00020FA04F001FA02F340EA030021FA04F3FF
:1004C00045EA030130BDC4F10C04C4F1200220FA56
:1004D00002F001FA04F340EA0300294630BD21FA94
:1004E00004F0294630BD94F0000F83F4801306BF5A
:1004F00081F480110134013D4EE77FEA645C18BF4E
:100500007FEA655C29D094EA050F08BF90EA020FE4
:1005100005D054EA000C04BF1946104630BD91EADC
:10052000030F1EBF0021002030BD5FEA545C05D1DF
:100530004000494128BF41F0004130BD14F580041E
:100540003CBF01F5801130BD01F0004545F0FE4192
:1005500041F470014FF0000030BD7FEA645C1ABFC7
:10056000194610467FEA655C1CBF0B46024650EAFE
:10057000013406BF52EA033591EA030F41F400212A
:1005800030BD00BF90F0000F04BF0021704730B5B0
:100590004FF4806404F132044FF000054FF0000185
:1005A00050E700BF90F0000F04BF0021704730B546
:1005B0004FF4806404F1320410F0004548BF40421B
:1005C0004FF000013EE700BF42004FEAE2014FEA70
:1005D00031014FEA02701FBF12F07F4393F07F4F4B
:1005E00081F06051704732F07F4208BF704793F04E
:1005F0007F4F04BF41F40021704730B54FF4607461
:1006000001F0004521F000411CE700BF50EA010263
:1006100008BF704730B54FF000050AE050EA01020C
:1006200008BF704730B511F0004502D5404261EB7C
:1006300041014FF4806404F132045FEA915C3FF4BD
:10064000D8AE4FF003025FEADC0C18BF03325FEA5A
:10065000DC0C18BF033202EBDC02C2F1200300FA0B
:1006600003FC20FA02F001FA03FE40EA0E0021FA30
:1006700002F11444BDE600BF0000000000000000CD
:1006800070B54FF0FF0C4CF4E06C1CEA11541DBF28
:100690001CEA135594EA0C0F95EA0C0F00F0DEF8F3
:1006A0002C4481EA030621EA4C5123EA4C5350EAD8
:1006B000013518BF52EA033541F4801143F4801329
:1006C00038D0A0FB02CE4FF00005E1FB02E506F0BA
:1006D0000042E0FB03E54FF00006E1FB03569CF00F
:1006E000000F18BF4EF0010EA4F1FF04B6F5007F15
:1006F00064F5407404D25FEA4E0E6D4146EB060687
:1007000042EAC62141EA55514FEAC52040EA5E500F
:100710004FEACE2EB4F1FD0C88BFBCF5E06F1ED8B9
:10072000BEF1004F08BF5FEA500E50F1000041EBF0
:10073000045170BD06F0004646EA010140EA02009D
:1007400081EA0301B4EB5C04C2BFD4EB0C0541EABF
:10075000045170BD41F480114FF0000E013C00F3D4
:10076000AB8014F1360FDEBF002001F0004170BDF8
:10077000C4F10004203C35DA0C341BDC04F1140411
:10078000C4F1200500FA05F320FA04F001FA05F29D
:1007900040EA020001F0004221F0004110EBD3706A
:1007A00021FA04F642EB06015EEA430E08BF20EA96
:1007B000D37070BDC4F10C04C4F1200500FA04F339
:1007C00020FA05F001FA04F240EA020001F00041CB
:1007D00010EBD37041F100015EEA430E08BF20EA3E
:1007E000D37070BDC4F1200500FA05F24EEA020E86
:1007F00020FA04F301FA05F243EA020321FA04F0B5
:1008000001F0004121FA04F220EA020000EBD3706B
:100810005EEA430E08BF20EAD37070BD94F0000F6B
:100820000FD101F00046400041EB010111F4801F9F
:1008300008BF013CF7D041EA060195F0000F18BF50
:10084000704703F00046520043EB030313F4801F8C
:1008500008BF013DF7D043EA0603704794EA0C0F46
:100860000CEA135518BF95EA0C0F0CD050EA41065C
:1008700018BF52EA4306D1D181EA030101F00041D9
:100880004FF0000070BD50EA410606BF1046194601
:1008900052EA430619D094EA0C0F02D150EA01360D
:1008A00013D195EA0C0F05D152EA03361CBF10464E
:1008B00019460AD181EA030101F0004141F0FE41ED
:1008C00041F470014FF0000070BD41F0FE4141F471
:1008D000780170BD70B54FF0FF0C4CF4E06C1CEA71
:1008E00011541DBF1CEA135594EA0C0F95EA0C0F26
:1008F00000F0A7F8A4EB050481EA030E52EA0335E1
:100900004FEA013100F088804FEA03334FF0805501
:1009100045EA131343EA12634FEA022245EA11152E
:1009200045EA10654FEA00260EF000419D4208BFDF
:10093000964244F1FD0404F5407402D25B084FEA8C
:100940003202B61A65EB03055B084FEA32024FF438
:1009500080104FF4002CB6EB020E75EB030E22BF95
:10096000B61A754640EA0C005B084FEA3202B6EB55
:10097000020E75EB030E22BFB61A754640EA5C0004
:100980005B084FEA3202B6EB020E75EB030E22BF94
:10099000B61A754640EA9C005B084FEA3202B6EB95
:1009A000020E75EB030E22BFB61A754640EADC0054
:1009B00055EA060E18D04FEA051545EA16754FEAB6
:1009C00006164FEAC30343EA52734FEAC2025FEAD4
:1009D0001C1CC0D111F4801F0BD141EA00014FF063
:1009E00000004FF0004CB6E711F4801F04BF014334
:1009F0000020B4F1FD0C88BFBCF5E06F3FF6AFAE50
:100A0000B5EB030C04BFB6EB020C5FEA500C50F1DF
:100A1000000041EB045170BD0EF0004E4EEA113162
:100A200014EB5C04C2BFD4EB0C0541EA045170BD69
:100A300041F480114FF0000E013C90E645EA060EAD
:100A40008DE60CEA135594EA0C0F08BF95EA0C0FDB
:100A50003FF43BAF94EA0C0F0AD150EA01347FF423
:100A600034AF95EA0C0F7FF425AF104619462CE7FA
:100A700095EA0C0F06D152EA03353FF4FDAE10465D
:100A8000194622E750EA410618BF52EA43067FF4AE
:100A9000C5AE50EA41047FF40DAF52EA43057FF43E
:100AA000EBAE12E7000000000000000000000000B4
:100AB0004FEA410212F5001215D211D56FF4787386
:100AC000B3EB625212D94FEAC12343F0004343EA29
:100AD000505311F0004F23FA02F018BF4042704704
:100AE0004FF00000704750EA013005D111F000408E
:100AF00008BF6FF0004070474FF00000704700BF24
:100B00004FEA4102B2F1E04324BFB3F5001CDCF12F
:100B1000FE5C0DD901F0004C4FEAC0024CEA507067
:100B2000B2F1004F40EB830008BF20F00100704796
:100B300011F0804F21D113F13872BCBF01F0004099
:100B4000704741F480114FEA5252C2F11802C2F1CB
:100B5000200C10FA0CF320FA02F018BF40F001004C
:100B60004FEAC1234FEAD32303FA0CFC40EA0C00FE
:100B700023FA02F34FEA4303CCE77FEA625307D13B
:100B800050EA01331EBF4FF0FE4040F44000704772
:100B900001F0004040F0FE4040F40000704700BF0C
:100BA00053B94AB9002908BF00281CBF4FF0FF31D4
:100BB0004FF0FF3000F074B9ADF1080C6DE904CED0
:100BC00000F006F8DDF804E0DDE9022304B0704728
:100BD0002DE9F047089E04468846002B4BD18A42F7
:100BE000154667D9B2FA82F24AB1C2F1200701FA7A
:100BF00002F320FA07F7954047EA030894404FEACA
:100C0000154E230CB8FBFEF71FFA85FC0EFB178868
:100C100043EA084307FB0CF1994209D9EB1807F1A5
:100C2000FF3080F01B81994240F21881023F2B4433
:100C30005B1AA4B2B3FBFEF00EFB103344EA03448C
:100C400000FB0CFCA44509D92C1900F1FF3380F0FE
:100C50000781A44540F2048102382C4440EA074051
:100C6000A4EB0C0400271EB1D4400023C6E90043C6
:100C70003946BDE8F0878B4209D9002E00F0EB80A1
:100C80000027C6E9000138463946BDE8F087B3FAC7
:100C900083F7002F47D18B4202D3824200F2FA80C1
:100CA000841A61EB030301209846002EE0D0C6E9C8
:100CB0000048DDE702B9FFDEB2FA82F2002A40F016
:100CC0008F80491B4FEA154E1FFA85F80127B1FBAB
:100CD000FEFC230C0EFB1C1143EA014308FB0CF144
:100CE000994207D9EB180CF1FF3002D2994200F279
:100CF000CD808446591AA3B2B1FBFEF00EFB10144E
:100D000043EA044408FB00F8A04507D92C1900F178
:100D1000FF3302D2A04500F2B6801846A4EB0804C7
:100D200040EA0C409FE7C7F1200CBB4022FA0CFEC2
:100D30004EEA030E01FA07F420FA0CF521FA0CF33F
:100D40004FEA1E482543B3FBF8F92C0C08FB193376
:100D50001FFA8EFA44EA034309FB0AF49C4202FAA2
:100D600007F200FA07F10BD91EEB030309F1FF307C
:100D700080F087809C4240F28480A9F1020973448C
:100D80001B1BADB2B3FBF8F008FB103345EA03447C
:100D900000FB0AFAA24508D91EEB040400F1FF3358
:100DA0006BD2A24569D90238744440EA0940A0FBDD
:100DB0000289A4EB0A044C45C2464B4654D351D099
:100DC000002E69D0B1EB0A0564EB030404FA0CFCB5
:100DD000FD40FC404CEA0505C6E90054002747E702
:100DE000C2F1200320FA03F7954001FA02F021FA3C
:100DF00003F34FEA154E3843010CB3FBFEF71FFA1D
:100E000085F80EFB173341EA034107FB08F38B42D9
:100E100004FA02F407D9691807F1FF3C2FD28B427C
:100E20002DD9023F2944CB1A81B2B3FBFEF00EFB51
:100E3000103341EA034100FB08F38B4207D96918DC
:100E400000F1FF3C17D28B4215D902382944C91A48
:100E500040EA07473BE73746304609E70746E7E6FB
:100E60001846FBE64145ABD2B8EB020A69EB0E022D
:100E700001381346A4E76046E9E7184695E7674658
:100E8000D1E781467CE702382C4447E7ACF1020CFD
:100E90002B442FE7384608E73746E9E60000000014
:100EA000704700BF000000000000000000000000CC
:100EB000844641EA000313F003036DD1403A41D365
:100EC00051F8043B40F8043B51F8043B40F8043B24
:100ED00051F8043B40F8043B51F8043B40F8043B14
:100EE00051F8043B40F8043B51F8043B40F8043B04
:100EF00051F8043B40F8043B51F8043B40F8043BF4
:100F000051F8043B40F8043B51F8043B40F8043BE3
:100F100051F8043B40F8043B51F8043B40F8043BD3
:100F200051F8043B40F8043B51F8043B40F8043BC3
:100F300051F8043B40F8043B51F8043B40F8043BB3
:100F4000403ABDD2303211D351F8043B40F8043B53
:100F500051F8043B40F8043B51F8043B40F8043B93
:100F600051F8043B40F8043B103AEDD20C3205D363
:100F700051F8043B40F8043B043AF9D2043208D05B
:100F8000D2071CBF11F8013B00F8013B01D30B88CD
:100F900003806046704700BF082A13D38B078DD0AB
:100FA00010F003038AD0C3F10403D21ADB071CBF7D
:100FB00011F8013B00F8013B80D331F8023B20F8E7
:100FC000023B7BE7043AD9D3013A11F8013B00F820
:100FD000013BF9D20B7803704B7843708B788370A8
:100FE00060467047000000000000000000000000A4
:100FF00090F800F06DE9024520F007016FF0000C59
:1010000010F0070491F820F040F049804FF0000400
:101010006FF00700D1E9002391F840F000F10800DB
:1010200082FA4CF2A4FA8CF283FA4CF3A2FA8CF313
:101030004BBBD1E9022382FA4CF200F10800A4FA7A
:101040008CF283FA4CF3A2FA8CF3E3B9D1E90423CE
:1010500082FA4CF200F10800A4FA8CF283FA4CF305
:10106000A2FA8CF37BB9D1E9062301F1200182FABF
:101070004CF200F10800A4FA8CF283FA4CF3A2FAC5
:101080008CF3002BC6D0002A04BF04301A4612BAD3
:10109000B2FA82F2FDE8024500EBD2007047D1E9D6
:1010A000002304F00305C4F100004FEAC50514F065
:1010B000040F91F840F00CFA05F562EA05021CBF36
:1010C00063EA050362464FF00004A9E70000000050
:1010D00001F0FF01102A2BDB10F0070F08D010F8E9
:1010E000013B013A8B422DD010F0070F42B3F6D1ED
:1010F000F0B441EA012141EA014122F007047FF006
:1011000000070023F0E80256083C85EA010586EA5C
:10111000010685FA47F5A3FA87F586FA47F6A5FA98
:1011200087F68EB9EED1F0BC01F0FF0102F00702A4
:1011300032B110F8013B013A83EA010313B1F8D14F
:101140000020704701387047002D06BF3546033830
:10115000073815F0010F07D1013015F4807F02BF69
:10116000013015F4C03F0130F0BC0138704700BFBA
:101170004FF0FF3C06E000BF4FF0010C02E000BF63
:101180004FF0010C4DF804CD4FEA410C7FEA6C5C46
:101190004FEA430C18BF7FEA6C5C1BD001B050EAE9
:1011A000410C0CBF52EA430C91EA030F02BF90EAD4
:1011B000020F0020704710F1000F91EA030F58BF93
:1011C000994208BF90422CBFD8176FEAE37040F0F5
:1011D000010070474FEA410C7FEA6C5C02D150EA93
:1011E000013C07D14FEA430C7FEA6C5CD6D152EA4E
:1011F000033CD3D05DF8040B704700BF8446104613
:1012000062468C461946634600E000BF01B5FFF711
:10121000B7FF002848BF10F1000F01BD4DF808EDE1
:10122000FFF7F4FF0CBF012000205DF808FB00BFB2
:101230004DF808EDFFF7EAFF34BF012000205DF80C
:1012400008FB00BF4DF808EDFFF7E0FF94BF012059
:1012500000205DF808FB00BF4DF808EDFFF7CEFF5A
:1012600094BF012000205DF808FB00BF4DF808ED99
:10127000FFF7C4FF34BF012000205DF808FB00BF6A
:101280004FEA410C7FEA6C5C02D150EA013C0AD182
:101290004FEA430C7FEA6C5C02D152EA033C02D174
:1012A0004FF0000070474FF0010070470000000051
:1012B0000EB410B50A4C0B4923680B4883B0019358
:1012C00006AB1A46009309F093F9019A23689A42F3
:1012D00004D103B0BDE8104003B0704700F048F8F7
:1012E0000008002050E500081C2700200000000036
:1012F00030B5154B154C1B68154D83B0019303F0A9
:1013000017F801F02DF800F023F9124A124913489A
:1013100000F046FF1249204604F08AF900F060FE12
:1013200000F076FB00F064FD00F0B2FD002000F05C
:10133000CFFD294602462046FFF7BAFF4FF47A70E8
:1013400001F04EFEF2E700BF000800201C2700203D
:1013500050E50008040800200C08002000120020BE
:101360002008002000000000000000000000000035
:1013700000B5084B83B01A680192019A1B689A4223
:1013800005D1054803B05DF804EB01F051B8FFF753
:10139000EFFF00BF0008002030E50008000000005B
:1013A00030B5104D81682B680F4A83B001930B68EC
:1013B00023F001030B608168946A03E0936A1B1BAE
:1013C000C72B09D8086810F00100F7D1019A2B68E3
:1013D0009A4204D103B030BD4FF0FF30F6E7FFF77B
:1013E000C7FF00BF00080020E81800200000000030
:1013F000F0B5284D83B02B68019302F049F801F055
:1014000037F9254B1E69F20715D55A69234C42F06E
:1014100001025A612778BB1F012B2AD90522636874
:1014200022701B680BB120469847042F27D0022F4B
:1014300025D003232370B30710D5174A174C5369DF
:1014400043F0020353612378032B1DD063689B682C
:101450000622227013B101211048984701F030F99B
:10146000019A2B689A4213D103B0BDE8F04002F014
:101470001FBF019A2B689A420AD103B0F0BD022324
:101480002370B307EAD5D8E72046FFF789FFDDE7E9
:10149000FFF76EFF00080020000005500C1200202E
:1014A0002DE9F043254E83B034680194042A9DF859
:1014B0002890144605460F46984639D9B9F1000FD1
:1014C00014BF00224FF08052640002EB0863013C1D
:1014D0001C4405F00F0527F01F07202383F3118814
:1014E00002F00EF83D4301F043F8154B1035DD6076
:1014F0001C6101F05DF802F01BF8124B1A689A4269
:1015000004D0996993688A689A420DD3002383F3C3
:101510001188BFF36F8FBFF34F8F019A33689A42E0
:101520000AD103B0BDE8F083074800F081FFEDE782
:10153000064800F07DFFC1E7FFF71AFF0008002012
:1015400090ED00E0E8180020E0E50008C0E50008A4
:1015500030B5224D224C2B68224A85B00393636834
:1015600043F004036360536A43F4803353622023DF
:1015700083F3118801F0C4FF00F0FAFF17221A4B21
:10158000E260236101F014F801F0D2FF174B1A68F2
:101590009A4204D0996993688A689A4218D30020C5
:1015A00080F31188BFF36F8FBFF34F8F03231D228A
:1015B00000904FF00051FFF773FF094A536843F062
:1015C00001035360039A2B689A4205D105B030BDE0
:1015D000074800F02DFFE2E7FFF7CAFE00080020F1
:1015E00090ED00E000ED00E009000010E818002098
:1015F000E0E500080000000000000000000000001E
:1016000070B51A4D1A4C1B4E0FCD0FC49EB02A68F0
:10161000336822801D93EFF30981682203A8FFF746
:1016200047FC154B9D6AAA0714D4EB0708D5124B4B
:1016300008995B6B114A00910D48802109F0C0FDAB
:101640001D9A33689A420FD109481EB0BDE8704018
:1016500000F0EEBE099A5B6B0092A4F11000084AFC
:10166000802109F0ADFDE0E7FFF782FEA4E5000868
:10167000201200200008002000ED00E080E50008B6
:1016800060E500080000000000000000000000000D
:1016900000B51F4B0278196883B00191E2B11D4A71
:1016A0004FF4005111834278EAB11A4A4FF4805145
:1016B00011838278F2B1174A4FF480411183C278C6
:1016C000FAB9144A4FF400415183019A1B689A42B7
:1016D0001CD103B05DF804FB0E4A4FF40051518356
:1016E0004278002AE1D10B4A4FF48051518382782D
:1016F000002AE0D1074A4FF480415183C278002A82
:10170000DFD0044A4FF400411183DEE7FFF730FEDB
:10171000000800200010024000000000000000004F
:1017200000B51F4B0278196883B00191E2B11D4AE0
:101730004FF4007111834278EAB11A4A4FF4807174
:1017400011838278F2B1174A4FF400611183C27895
:10175000FAB9144A4FF480615183019A1B689A4286
:101760001CD103B05DF804FB0E4A4FF400715183A5
:101770004278002AE1D10B4A4FF48071518382787C
:10178000002AE0D1074A4FF400615183C278002A51
:10179000DFD0044A4FF480611183DEE7FFF7E8FDF4
:1017A00000080020001002400000000000000000BF
:1017B00030B50C4A0C4B116883B04FF400550191C1
:1017C0004FF480544FF400414FF480405D835C83BC
:1017D0005883598301991368994201D103B030BDF0
:1017E000FFF7C6FD000800200010024000000000C6
:1017F00030B50C4A0C4B116883B04FF40075019161
:101800004FF480744FF480614FF400605D835C831B
:101810005883598301991368994201D103B030BDAF
:10182000FFF7A6FD000800200010024000000000A5
:1018300010B50B4C0B48236882B09922002101930C
:1018400003F026F9019A23689A4206D1054800213F
:1018500002B0BDE8104003F003BAFFF789FD00BFF6
:1018600000080020C8260020000000000000000042
:1018700010B50B4C0B48236882B0992200210193CC
:1018800003F006F9019A23689A4206D1054800211F
:1018900002B0BDE8104003F0E3B9FFF769FD00BFF7
:1018A00000080020E42600200000000000000000E6
:1018B00000B5084B83B01A680192019A1B689A42DE
:1018C00006D10548002103B05DF804EB03F030B900
:1018D000FFF74EFD00080020C82600200000000091
:1018E00000B5084B83B01A680192019A1B689A42AE
:1018F00006D10548002103B05DF804EB03F018B9E8
:10190000FFF736FD00080020E4260020000000005C
:1019100070B51A4C1A4E2378326882B0022B0192AD
:10192000A26811D165781748013505F0070500EB6D
:101930008500904763686570013B6360019A336876
:101940009A4219D102B070BD012B08D001993368B9
:10195000994211D10C4802B0BDE87040104765783B
:101960000848013D05F0070500EB850090476368D6
:10197000657001336360E1E7FFF7FAFCB8120020FD
:101980000008002080E6000870E600080000000063
:1019900070B51A4C1A4E2378326882B0012B01922E
:1019A000A26811D165781748013505F0070500EBED
:1019B000850090476368657001336360019A3368FE
:1019C0009A4219D102B070BD022B08D00199336838
:1019D000994211D10C4802B0BDE8704010476578BB
:1019E0000848013D05F0070500EB85009047636856
:1019F0006570013B6360E1E7FFF7BAFCA0120020CD
:101A00000008002080E6000870E6000800000000E2
:101A100070B51D4E1D4A1E4B30681E491E4C91600C
:101A200082B00021D46001901C4C1D481D4D9D606A
:101A3000117051705160106154611B481B4A1C4D5C
:101A4000D8601C48197059705960C3E90425FFF724
:101A50001FFE1848FFF764FE1749204602F0C8FF32
:101A6000204603F0B5F82846144902F0C1FF019A58
:101A700033689A4205D1284602B0BDE8704003F0B1
:101A8000A7B8FFF775FC00BF00080020B8120020BF
:101A9000A01200209116000831180008C826002066
:101AA000B11800082117000871180008E118000893
:101AB000E426002070E6000830E60008F0E50008A3
:101AC0000A490B4B09680B4A82B020200191402142
:101AD00058834FF4806559834FF400644FF480407D
:101AE00004215D835C8358835183FEE70008002056
:101AF000000C024000040240000000000000000052
:101B000010B51E491E4A0B78106882B0013B019047
:101B1000072B0AD8DFE803F012151C1F26290F0433
:101B200018480824012304830B7001991368994213
:101B300021D102B010BD08230B70F6E702230B7011
:101B4000F3E711484FF48054032304830B70ECE750
:101B500004230B70E9E70C484FF480440523048309
:101B60000B70E2E706230B70DFE706480424072327
:101B700004830B70D9E7FFF7FBFB00BF5016002072
:101B80000008002000100240000402400000000095
:101B900030B50C4B0C4918680C4A83B04FF48045A3
:101BA00001904FF480504883042408204D835483CF
:101BB0005083019A1B689A4201D103B030BDFFF7F0
:101BC000D7FB00BF000800200004024000100240C4
:101BD0002DE9F04F4E4B4F4A9B694F499961A5B093
:101BE00007AE05AD80231768009331462A460024CE
:101BF0000CA84A4B2397CDE90766CDE90555CDE9F9
:101C000009440B9400F0E4FA0CA9454A4548434CBA
:101C1000454DDFF83481DFF834B1DFF834A100F04E
:101C2000FFFA04F11C0604F16007A146504601F0DA
:101C300007FD2A682B69226063602A6A2B6BA26009
:101C4000E3606A686B69226163616A6A6B6BA261B7
:101C5000E361AA68AB6922626362AA6AAB6BA262A3
:101C6000E362EA68EB6922636363EA6AEB6B2F491C
:101C7000A263E36351F8043F0A6AB142A3EB020393
:101C80000B64F7D1802249460CA800F0F9FA98F8C5
:101C90000030002BCAD09BF8003033B3012BC5D1E4
:101CA000DFF8B0C02248614650F8042B51F8043FD9
:101CB000B84213440B60F7D11E4A13780133DBB2EC
:101CC000642B1370B2D11C495CF8043F1B4A82FBA1
:101CD0000302DB17C3EB621341F8043B184B9C452E
:101CE000F2D1002388F80030A0E7194620221248DC
:101CF000039309F015FA039B12481946202209F0B4
:101D00000FFA0C49039B0B7001228BF800208DE722
:101D1000E818002000080020A0E600085413002066
:101D2000E0E6000800120020F0120020501300200E
:101D30009413002031130020B41300201F85EB51B1
:101D400050130020341300203013002032130020E1
:101D50002C080020301300200000000000000000CC
:101D600070B502691E4D52882B6882B006460C463B
:101D70001C4801939200002109F0D2F933695B8875
:101D80005BB1184AA11E002331F8020F42F8040B80
:101D90003069408801339842F6D8202383F31188B4
:101DA00001F0DEFB00F024FC00F0B2FC0E4883687A
:101DB000002B0FDD00F03CFC01F0EAFB002383F375
:101DC0001188019A2B68094901209A42087004D1B0
:101DD00002B070BD01F06CFCECE7FFF7C9FA00BF80
:101DE00000080020F01200202C08002050160020CF
:101DF00070B51F4D1F4C2E78236884B0012E0393BD
:101E000005D0039A23689A422FD104B070BD0021F7
:101E1000284602F0A5FB284602F062FC334628461D
:101E2000154A164902F01CFC1549164802F0E0FD5F
:101E30004FF496720021134802F02AFE0021114847
:101E400002F00EFF0F4802F0C3FE31464FF48272DB
:101E50000C4802F01DFE0023009340220A4B0B4861
:101E60004FF41E7101F064F8CBE7FFF781FA00BF71
:101E70004420002000080020D0120020B0E6000816
:101E8000F0E60008AC260020D11B0008D813002083
:101E900030B50C4D0C4A2B680C4C83B000210193DB
:101EA000012311702370142001F09AF82378002B7D
:101EB000F9D1019A2B689A4201D103B030BDFFF7E6
:101EC00057FA00BF00080020321300203013002012
:101ED00010B50E4A82B013680193072811D80C4937
:101EE00000F1180300F1100451F8233051F82400D8
:101EF000C01A20EAE07001991368994203D102B038
:101F000010BD0020F7E7FFF733FA00BF00080020FC
:101F1000541300200000000000000000000000003A
:101F200000B50F4B83B01868019002290CD003292B
:101F30000CD001290B4818BF0020019A1B689A4257
:101F40000BD103B05DF804FB0748F6E7032A96BF00
:101F50000648002000EBC200EFE7FFF709FA00BFD8
:101F60000008002010E80008B0E70008C0E80008FA
:101F700070B5154C82B02368019302291CD10D461F
:101F80000646202383F3118801F0EAFA00F030FBC3
:101F900030460E4A012103F0EBFF29460C4A304639
:101FA00003F0E6FF0B4803F0E3FD00F041FB01F016
:101FB000EFFA002383F31188019A23689A4201D132
:101FC00002B070BDFFF7D4F90008002030E7000828
:101FD00060E7000854160020000000000000000028
:101FE00030B5134D134C2B68134883B0019303F0A5
:101FF00037FD1249104803F063FD226D936B23F403
:10200000002393634FF47A7000F0EAFF20460C49F6
:1020100003F05EFF226D936B43F400239363019AF8
:102020002B689A4201D103B030BDFFF7A1F900BF80
:1020300000080020A82300205416002090E7000884
:10204000A0E7000800000000000000000000000001
:1020500000B5084B83B01A680192019A1B689A4236
:1020600005D1054803B05DF804EB01F049BCFFF76A
:102070007FF900BF000800203808002000000000A1
:1020800000B5084B83B01A680192019A1B689A4206
:1020900005D1054803B05DF804EB01F069BCFFF71A
:1020A00067F900BF00080020380800200000000089
:1020B00070B50D4C82B0236801930D1E06460DDDF0
:1020C000284602F06DF818B90C2333604FF0FF304A
:1020D000019A23689A4205D102B070BD034800F00E
:1020E000A7F9EDE7FFF744F900080020E0E8000851
:1020F00000B5064B83B01A680192019A1B689A4298
:1021000002D103B05DF804FBFFF732F900080020AC
:1021100000B5074B83B01A680192019A1B689A4276
:1021200004D103B05DF804EB01F0EABBFFF720F93E
:102130000008002000000000000000000000000077
:1021400000B5074B83B01A680192019A1B689A4246
:1021500004D103B05DF804EB01F00ABCFFF708F905
:102160000008002000000000000000000000000047
:1021700000B5074B83B01A680192019A1B689A4216
:1021800004D103B05DF804EB01F0A2BCFFF7F0F856
:102190000008002000000000000000000000000017
:1021A00010B5084B82B01C68019400240460019CA7
:1021B0001B689C42C0E9011201D102B010BDFFF7BB
:1021C000D7F800BF00080020000000000000000059
:1021D0002DE9F0430E4D83B02C68019404469946D6
:1021E0000F46164610304C220021DDF8288008F0FA
:1021F00097FFC4F80090019A2B68E6609A42C4E900
:10220000018702D103B0BDE8F083FFF7B1F800BF4A
:102210000008002000000000000000000000000096
:10222000F0B5144E83B001F11003174632680192E5
:102230000446412218460D46002108F071FF394638
:10224000402209F005F86068FFF762FF236803B1D8
:10225000AB652560A068FFF78BFF019A33689A424F
:1022600005D1606803B0BDE8F040FFF769BFFFF734
:102270007FF800BF00080020000000000000000000
:10228000F0B51C4E436883B0054693423068019018
:1022900006D20020019A33689A4229D103B0F0BDDA
:1022A00014460F46A868FFF733FF224639462868D0
:1022B000FEF7FEFD012385F85130E868FFF758FF6F
:1022C0006C6D84B123681868FFF722FF23689D6056
:1022D00023685868FFF74CFF23681868FFF730FF42
:1022E0006468002CEED1A868FFF72AFF0120D1E72F
:1022F000FFF73EF80008002000000000000000008A
:1023000000B5064B83B01A680192019A1B689A4285
:1023100002D103B05DF804FBFFF72AF800080020A3
:10232000024B82B01B680193FEE700BF000800204B
:1023300000B5044B04481B6883B0019300F078F8A3
:10234000FEE700BF00080020F0E8000800000000E1
:10235000024B82B01B680193FEE700BF000800201B
:10236000F0B5294E294B3268294885B000240392E4
:102370009C60D968274A4FF6FF0529400A43DA6076
:10238000C2682549254D42F08072C2600A6842F059
:1023900001020A6010202022D87783F8222000F062
:1023A000DFFA00F045FA00F0FBFF01F0D1FE01F08A
:1023B0003FFF01F04DF800F0FBF9402105F5886082
:1023C00000F01EFD0127164BC36180F82070A86144
:1023D00000F0A6F884F3118862B6AB69114A9A61DD
:1023E0004FF4C4713A46104B009405F59D6000F01F
:1023F0009FFD039A33680D4981619A4201D105B06E
:10240000F0BDFEF7B5FF00BF0008002000ED00E0C2
:10241000F0ED00E00003FA05001000E0E8180020ED
:102420000004002070EA00085123000810E90008A9
:1024300000B5054B83B01B680193044672B6FFF7E5
:102440003FFB024BDC62FEE700080020E81800209A
:102450002DE9F047DFF890A0224DDAF8003082B085
:10246000019300F055F9AB6993F8232012B1013ABA
:1024700083F823205A6ADFF8748001325A6200F030
:1024800047F9AB6AEA6901334245AB6220D09368F1
:10249000013B9360EC69A668D6B94FF02009236828
:1024A000E768E660C3F804802368EB6100F0C0F8D9
:1024B00001F06EF886F311882069B84789F3118816
:1024C00001F04EF800F094F8EC69A368002BE6D018
:1024D000019ADAF800309A4202D102B0BDE8F087E2
:1024E000FEF746FFE818002000080020041900202D
:1024F00010B5094C094A236882B0019351685368AA
:102500005B1A9842FBD8019A23689A4201D102B023
:1025100010BDFEF72DFF00BF00080020001000E0F6
:1025200000B50E4A0E4B116B186883B0019009B9C3
:10253000526B4AB1019A1B689A420CD1094803B008
:102540005DF804EBFFF774BF019A1B689A4202D151
:1025500003B05DF804FBFEF70BFF00BFE818002096
:102560000008002020E90008000000000000000032
:1025700030B50B4C0B4D236B2A6883B001920BB91D
:10258000636B13B10848FFF753FF019A2B680121D1
:102590009A42616301D103B030BDFEF7E9FE00BF8E
:1025A000E81800200008002050E9000800000000A2
:1025B00030B50C4C0C4D236B2A6883B0019253B993
:1025C000636B002B07DD019A2B6800219A4261633F
:1025D00005D103B030BD0548FFF72AFFF3E7FEF74A
:1025E000C7FE00BFE81800200008002070E90008BE
:1025F00030B50B4C0B4D236B2A6883B0002B019236
:1026000001DD636B13B10848FFF712FF019A2B68D5
:1026100001219A42616301D103B030BDFEF7A8FEEB
:10262000E81800200008002060E900080000000011
:1026300030B50C4C0C4D236B2A6883B0002B0192F3
:102640000ADD636B002B07DD019A2B6800219A429B
:10265000616305D103B030BD0448FFF7E9FEF3E73D
:10266000FEF786FEE81800200008002080E9000838
:1026700030B50F4D83B02B680193202383F311886D
:102680000C4C236B002B01DB626B1AB10A48FFF77D
:10269000CFFE236B01332363002383F31188019A58
:1026A0002B689A4201D103B030BDFEF761FE00BF36
:1026B00000080020E818002030E9000800000000B1
:1026C00030B50F4D83B02B680193202383F311881D
:1026D0000C4C236B002B01DD626B1AB10A48FFF72B
:1026E000A7FE236B013B2363002383F31188019A28
:1026F0002B689A4201D103B030BDFEF739FE00BF0E
:1027000000080020E818002040E900080000000050
:1027100000B50F4A0F4B116B186883B00029019068
:1027200009DB526B002A06DD019A1B689A420CD124
:1027300003B05DF804FB019A1B689A4205D1064874
:1027400003B05DF804EBFFF773BEFEF711FE00BFA8
:10275000E81800200008002090E9000800000000B0
:1027600000B50E4A0E4B116B186883B0019049B941
:10277000526B002A06DD019A1B689A420CD103B005
:102780005DF804FB019A1B689A4205D1054803B025
:102790005DF804EBFFF74CBEFEF7EAFDE8180020F9
:1027A00000080020A0E90008000000000000000070
:1027B00010B5084A084B116882B040240191019974
:1027C000126818199142C3E90E4001D102B010BD40
:1027D000FEF7CEFD00080020E818002000000000F1
:1027E00010B51149114B0A6882B00192DA6B9C6AEC
:1027F0001460DA6B9C695460DA6B846A9460DA6BFB
:1028000090F820001073DA6B03F588601032824272
:1028100028BF03F14002DA63019A0B689A4201D1A2
:1028200002B010BDFEF7A4FD00080020E81800204B
:1028300010B50B4A0B4B116882B04FF0FF34019179
:1028400000219962019811685C6203F11C028842C0
:10285000C3E9072201D102B010BDFEF789FD00BF18
:1028600000080020E8180020000000000000000020
:102870002DE9F041184E82B00546306801900C46B3
:1028800017469846FFF744FF05B3FFB1F4B1C5E919
:1028900003781248C3699A68944204D91B68A41A41
:1028A0009A68A242FAD32B605A686A6015605D602C
:1028B000AC609968019D3268091B95424FF0FF3466
:1028C0009960446206D102B0BDE8F0810448FFF788
:1028D000AFFDDCE7FEF74CFD00080020E818002003
:1028E000B0E9000800000000000000000000000047
:1028F00030B5164D83B004462B680193FFF708FFEF
:10290000ECB1E368BBB12268A06893680199034405
:102910009360D4E900231A6020682B680C4A65682C
:10292000456099424FF000054FF0FF30E56050627E
:1029300009D103B030BD0748FFF77AFDE3E705484A
:10294000FFF776FDDDE7FEF713FD00BF000800206E
:10295000E8180020C0E900080000000000000000A6
:1029600000B50A4A0A4B11681B6083B00020019130
:10297000019912685B609142C3E90433986002D107
:1029800003B05DF804FBFEF7F3FC00BF0008002075
:10299000E818002000000000000000000000000017
:1029A00030B5164D83B004462B680193FFF7B0FE97
:1029B000ECB194F82030B3B10F2B14D00022A168F1
:1029C0000F4B84F820201B689A688A42FBD2236050
:1029D0005A686260146001992A685C6091422046DE
:1029E00009D103B030BD0748FFF722FDE6E70548EF
:1029F000FFF71EFDDDE7FEF7BBFC00BF000800206F
:102A0000E8180020D0E900080000000000000000E5
:102A100070B5204D82B02B6801930446202383F3C8
:102A2000118800F09DFDFFF7E3FD94F82030072B9F
:102A300011D8DFE803F0161010230A04100AA66A62
:102A4000FFF766FEB3680133B360D4E900231A6070
:102A5000D4E900325A604FF0FF33A3622046FFF7FB
:102A60009FFFFFF7E5FD00F093FD002383F311883E
:102A7000019A2B689A420BD102B070BDA36A002262
:102A80001A604FF0FF33A3622046FFF789FFE8E7A3
:102A9000FEF76EFC000800200000000000000000AF
:102AA000F0B5194E194C336883B007460193FFF710
:102AB00057FEA569236885F82070142285F8232025
:102AC0001A68226001215460284683F82010A3610F
:102AD000FFF786FE2946A06900F0F2FCEFF30983B8
:102AE000EA69643B9A4202D90948FFF7A1FC019ABE
:102AF00033689A4206D1A069294603B0BDE8F04088
:102B0000FDF7D6BBFEF734FC00080020E8180020D3
:102B1000E0E90008000000000000000000000000E4
:102B2000F0B5154C87B0236805930E460746FFF7AE
:102B300017FE731C18D0114D114AAB693146684617
:102B4000FFF796FE3846FFF7ABFFFFF7E1FD039B6B
:102B500013B16846FFF7CCFE059A2368A9699A422B
:102B6000886A06D107B0F0BD3846FFF799FF034DDC
:102B7000F2E7FEF7FDFB00BF00080020E818002088
:102B8000112A000800000000000000000000000002
:102B9000F0B51E4D1E4E2B6883B0044601930F46C0
:102BA000FFF7DEFDB069A7628368A2689A421DD96B
:102BB000FFF7F6FE0123074684F82030B461FFF7E3
:102BC0000FFE3946204600F07BFCEFF30983FA69DB
:102BD000643B9A4214D8019A2B689A4214D1394620
:102BE000204603B0BDE8F040FDF762BB019A2B68B8
:102BF0009A4209D1204603B0BDE8F040FFF7D0BEAD
:102C00000448FFF715FCE6E7FEF7B2FB00080020DA
:102C1000E8180020E0E900080000000000000000C3
:102C200010B50E490E4B8A69086892F823101C688B
:102C30008068926882B0019449B9904234BF002004
:102C40000120019A1B689A4206D102B010BD904241
:102C500094BF00200120F4E7FEF78AFBE81800206B
:102C6000000800200000000000000000000000003C
:102C700070B5184C184E2368A5691A682260546014
:102C8000012283F8202082B01422316885F82320A5
:102C90002846A3610191FFF783FE2846FFF7A0FDB8
:102CA0002946A06900F00CFCEFF30983EA69643B54
:102CB0009A4202D90948FFF7BBFB019A33689A424E
:102CC00006D1A069294602B0BDE87040FDF7F0BA10
:102CD000FEF74EFBE818002000080020E0E900089D
:102CE00070B51C4D1C4E2A68AC6913682B6001211D
:102CF00082B05D60002082F82010AA613268A1686D
:102D000084F82000019200E01B689A688A42FBD890
:102D100023605A686260204614605C60FFF760FDC3
:102D20002146A86900F0CCFBEFF30983E269643B1C
:102D30009A4202D90948FFF77BFB019A33689A420D
:102D400006D1A869214602B0BDE87040FDF7B0BACF
:102D5000FEF70EFBE818002000080020E0E900085C
:102D600010B50F4C82B023680193FFF7F9FCFFF711
:102D7000CFFC0C4B1A689B6992689B689A42019A37
:102D8000236803D89A4208D102B010BD9A4204D1F8
:102D900002B0BDE81040FFF7A3BFFEF7E9FA00BF9D
:102DA00000080020E81800200000000000000000DB
:102DB00000B50E4A0E4B9269196892F8232083B031
:102DC000019142B1019A1B689A420DD103B05DF89E
:102DD00004EBFFF785BF019A1B689A4204D103B048
:102DE0005DF804EBFFF744BFFEF7C2FAE8180020D5
:102DF00000080020000000000000000000000000AB
:102E0000F0B51A4A1A4D02610446816083B014235A
:102E100050692E68616484F8233002270023012161
:102E2000278484F82210C4E90F3304F16801A361F8
:102E3000019604F12C07636204F1500604F130039B
:102E400060610461C4E90C33E1613046E7625461BA
:102E500000F03EFA304600F05BFA019A2B689A4285
:102E600002D1204603B0F0BDFEF782FAE818002038
:102E7000000800200000000000000000000000002A
:102E800010B5094B82B01C680194884203D200F847
:102E9000012B8142FBD1019A1B689A4201D102B0F9
:102EA00010BDFEF765FA00BF00080020000000001A
:102EB0002DE9F043184E83B0346801940546DDF8DF
:102EC00028900C4617469846FFF722FC15B1B4F53A
:102ED000BC7F19D21148FFF7ABFAA4F16401294471
:102EE000E960C1F84080EB68019AC3F84490336808
:102EF000E9680B4808669A420CD13946284603B067
:102F0000BDE8F043FFF77CBF7F2FE3D8B8F1000F97
:102F1000E3D1DFE7FEF72CFA0008002030EA0008D2
:102F2000C9020008000000000000000000000000CE
:102F30002DE9F04FDFF8A48087B0D8F80040DDF825
:102F40004090059407468A46934600F16806044679
:102F5000FF2504F8015BA642FBD107EB0A05A54259
:102F600004D9552604F8016BA542FBD10393202216
:102F700082F3118800F0C4FAFFF7FAFA039BCDF848
:102F800000905A4651463846FFF792FF002104460A
:102F9000FFF7FEFDFFF70CFB00F0CAFA0D4B1A68B5
:102FA0009A4204D0996993688A689A420BD30023A5
:102FB00083F31188059AD8F800309A42204606D14A
:102FC00007B0BDE8F08F0448FFF732FAEFE7FEF7ED
:102FD000CFF900BFE8180020F0E900080008002041
:102FE00030B5184C83B0236801930546202383F342
:102FF000118800F085FAFFF7BBFA15B91248FFF700
:1030000017FA29460820FFF78BFDFFF7D1FA00F0E9
:103010008FFA0E4B1A689A4204D0996993688A68AD
:103020009A4208D3002383F31188019A23689A42B5
:1030300005D103B030BD0648FFF7FAF9F2E7FEF715
:1030400097F900BF0008002000EA0008E8180020F7
:10305000F0E900080000000000000000000000008F
:1030600070B5164B164E9C693268E36AA06282B056
:1030700004F12C05AB42019207D01A68E2621846AF
:10308000FFF78EFCE36AAB42F7D194F821309B073F
:1030900005D1D4E904231A61D4E904325A610F201E
:1030A000FFF7FEFC019A33689A4205D1054802B049
:1030B000BDE87040FFF7BCB9FEF75AF9E8180020E8
:1030C0000008002040EA00080000000000000000A6
:1030D00030B50C4C83B0236801930546202383F35D
:1030E000118800F00DFAFFF743FA019A23689A421B
:1030F00005D1284603B0BDE83040FFF7B1BFFEF769
:1031000037F900BF000800200000000000000000A8
:10311000F0B50D4D0D4E03682A68B76983B00446BB
:10312000019213B10A48FFF783F927600320BC62BC
:10313000FFF7B6FC019A2B68B1699A42886A01D1FF
:1031400003B0F0BDFEF714F900080020E8180020D5
:1031500050EA00080000000000000000000000002D
:10316000F0B5124D04682B6883B00193B4B194F8A4
:103170002030032B06460F460CD100233360019A02
:103180002B68A7629A420FD1204603B0BDE8F040F9
:10319000FFF706BC0648FFF74BF9EEE7019A2B68EC
:1031A0009A4201D103B0F0BDFEF7E2F8000800201A
:1031B00060EA0008000000000000000000000000BD
:1031C00030B5104A83B01368019381B10E4B019D55
:1031D0009B69186044685C60236012684360954294
:1031E0000DD1042003B0BDE83040FFF799BC019930
:1031F000136899424FF0FF3001D103B030BDFEF7A4
:10320000B7F800BF00080020E81800200000000008
:1032100070B5124D04682B6882B0A042019315D09E
:1032200023680360586094F82030042B0E4602D0C7
:103230000B48FFF7FDF8019A2B68A6629A420BD162
:10324000204602B0BDE87040FFF7AABB019A2B6888
:103250009A4201D102B070BDFEF78AF80008002042
:1032600010EA00080000000000000000000000005C
:103270002DE9F041DFF850800468D8F8003082B0C2
:10328000A042019313D00F4F05460E4623682B60D2
:103290005D6094F82030042B02D03846FFF7C8F860
:1032A000A6622046FFF77CFB2C68A542EED1019A6E
:1032B000D8F800309A4202D102B0BDE8F081FEF7A2
:1032C00057F800BF10EA00080008002000000000C6
:1032D00030B50B4B83B01A6801924FF0FF32026099
:1032E00001991A680024002300259142C0E9044591
:1032F000C0E90133C36001D103B030BDFEF738F837
:103300000008002000000000000000000000000095
:1033100000B5084B084A196883B001915168019AB9
:103320001B6881609A4202D103B05DF804FBFEF78E
:103330001FF800BF00080020001000E0000000009F
:10334000F0B51449144B0A68846883B00192134A9B
:103350005B68D2F8A864C2681B1BD0E9044501323F
:103360009B1BC26042688360E61845F100079342E8
:10337000C0E9046709D80268934238BF0360019A24
:103380000B689A4203D103B0F0BD4360F7E7FDF745
:10339000EFFF00BF00080020001000E0E818002048
:1033A00030B5114D114C2B6889B04FF0FF310793A8
:1033B000002300226846C4F8A834CDE90133039302
:1033C0000023CDE904230091FFF7A2FF6846FFF731
:1033D000B7FF079A2B680299C4F8A8149A4201D142
:1033E00009B030BDFDF7C4FF00080020E818002038
:1033F0002DE97048134E144B326883B001925B681C
:103400008B60D0E902411B1BD0E90445426814EBF4
:10341000030B45F1000C01319342C0E90231C0E9D0
:1034200004BC0AD80268934238BF0360019A33682B
:103430009A4204D103B0BDE870884360F6E7FDF717
:1034400097FF00BF00080020001000E0000000000F
:1034500030B50D4D0D4C2B6883B004F5976001938A
:103460000023C4F8B034C4F8B434FFF731FF019A34
:103470002B689A4206D104F59A6003B0BDE830404B
:10348000FFF726BFFDF774FF00080020E8180020B2
:1034900000B50949094A0B6883B001930198D2F835
:1034A000B034096801338842C2F8B03402D103B0A5
:1034B0005DF804FBFDF75CFF00080020E818002021
:1034C00070B50D4C0D4A236882B00193019DD2F86E
:1034D000B43424680133A542C2F8B43409D10E468D
:1034E00000F1500106F1500002B0BDE87040FFF756
:1034F0007FBFFDF73DFF00BF00080020E818002057
:1035000000B5084B83B01A680192019A1B689A4271
:1035100005D1054803B05DF804EBFFF7F9BEFDF7F0
:1035200027FF00BF00080020A01D002000000000B1
:1035300000B5084B83B01A680192019A1B689A4241
:1035400005D1054803B05DF804EBFFF7F9BEFDF7C0
:103550000FFF00BF00080020A01D00200000000099
:1035600000B5084B83B01A680192019A1B689A4211
:1035700005D1054803B05DF804EBFFF7C9BEFDF7C0
:10358000F7FE00BF00080020B81D0020000000006A
:1035900000B5084B83B01A680192019A1B689A42E1
:1035A00005D1054803B05DF804EBFFF7C9BEFDF790
:1035B000DFFE00BF00080020B81D00200000000052
:1035C00070B51B4D82B004462B680193FFF7C8F815
:1035D00044B3A3682268002B10DBA24203D0154835
:1035E000FEF726FFA368013B002BA3600CDB002045
:1035F000019A2B689A4219D102B070BDA242EED056
:10360000013B002BA360F2DA0B4EB3699C621C6095
:1036100062685A60052013606360FFF741FAB3697E
:10362000986AE5E70348FEF703FFD2E7FDF7A0FE3F
:1036300000080020A0EA0008E818002000000000B0
:1036400030B5164C83B0236801930546202383F3DD
:103650001188FFF755FFFEF78BFF2846FFF7B0FFF5
:103660000546FEF7A5FFFFF763FF0D4B1A689A4268
:1036700004D0996993688A689A4209D3002383F336
:103680001188019A23689A42284605D103B030BDBB
:103690000448FEF7CDFEF1E7FDF76AFE00080020C2
:1036A000E818002090EA0008000000000000000078
:1036B00030B51C4D83B004462B680193FFF728F802
:1036C0004CB3A3682268002B0FDBA24203D016483C
:1036D000FEF7AEFEA3680133002BA3600BDD019A59
:1036E0002B689A421BD103B030BDA242EFD0013308
:1036F000002BA360F3DC20680199036823602A682B
:103700005C6091424FF00003836208D103B0BDE8D2
:103710003040FFF745B90448FEF78AFED1E7FDF7D0
:1037200027FE00BF00080020B0EA000800000000EB
:1037300030B50B4D83B02B680193044650B1246023
:1037400001992A68646000239142A360236105D136
:1037500003B030BD0348FEF76BFEF0E7FDF708FE4F
:1037600000080020D0EA000800000000000000006F
:10377000F0B55D4E5D4B32689D6983B004460192A1
:10378000FEF7EEFF002C00F08480A068236900287B
:1037900043D0002B40F39780854276D0AA68836897
:1037A0009A4208D990F820308260062B40D0072B2F
:1037B00073D0002B5DD02746234603E09968AA68A2
:1037C000914233D31B689C42F8D12F607B686B60B9
:1037D00006201D607D60AC62FFF762F9A368AB4212
:1037E00002D04348FEF724FE2B6CA34202D040488F
:1037F000FEF71EFE2369012B05D1019A33689A4218
:103800006FD103B0F0BD019A33689A4269D138484C
:1038100003B0BDE8F040FEF70BBE002B58D10133DA
:10382000A56023612B6CE3602C64E6E71F46CCE7C0
:10383000D0E900231A60D0E900325A60876A3B461B
:1038400003E099688268914247D31B689F42F8D190
:1038500007607B68436018607860836AAA6898682C
:1038600083689342A7D290F820308260062B9ED1C5
:10387000DEE7D0E90023012180F820101A60D0E9AA
:1038800000325A60FFF78CF895E723690133236112
:10389000B3E71748FEF7CCFD77E7D0E900231A60BD
:1038A000D0E900325A60876A3B4603E09968826833
:1038B000914214D31B689F42F8D107607B68436034
:1038C0001860786077E70A48FEF7B2FDA06863E702
:1038D0000748FEF7ADFD2369A1E71F46B8E71F467D
:1038E000EBE7FDF745FD00BF00080020E8180020C9
:1038F000E0EA0008000000000000000000000000F6
:1039000030B5154C83B0236801930546202383F31B
:103910001188FFF7F5FDFEF72BFE2846FFF728FF7D
:10392000FEF746FEFFF704FE0C4B1A689A4204D0DD
:10393000996993688A689A4208D3002383F31188AF
:10394000019A23689A4205D103B030BD0448FEF7BE
:103950006FFDF2E7FDF70CFD00080020E8180020DD
:10396000C0EA0008000000000000000000000000A5
:103970002DE9F043DFF800813C4FD8F80030BE69F4
:1039800083B005460193002864D0202383F3118877
:10399000FFF7B6FDFEF7ECFD336C002B5ED09B68A5
:1039A000B34202D03248FEF743FD2B69002B49DDBC
:1039B000013B2B615BBB336CAB4202D02C48FEF762
:1039C00037FDEB683364FEF7CBFE2B689D423ED09B
:1039D000D6E910495CB1FEF7C3FE23689C4203D0D0
:1039E0009B68994538BF9946E468002CF3D1C6F826
:1039F00008902B6801222A611A682A605560AB6022
:103A00001A6CEA6018461D640021FFF7C1F8FEF742
:103A1000CFFDFFF78DFD3B68BB4204D0BA699B68C0
:103A200092689A420AD3002383F31188019AD8F846
:103A300000309A4217D103B0BDE8F0830D48FEF77D
:103A4000F7FCF0E70A48FEF7F3FC2B69B0E7002328
:103A5000AB60DCE70648FEF7EBFC96E70448FEF7B0
:103A6000E7FC336C9BE7FDF783FC00BFE818002000
:103A7000F0EA0008C0EA000800080020000000008A
:103A800070B5114E82B0044633680193FEF740FED4
:103A90009CB12068A0420AD06FF001050368236042
:103AA0005C60FEF77DFF85622068A042F6D1019A36
:103AB00033689A4205D102B070BD0448FEF7B8FCE5
:103AC000E7E7FDF755FC00BF0008002010EB0008F9
:103AD00030B5164C83B0236801930546202383F349
:103AE0001188FFF70DFDFEF743FD2846FFF7C8FFDD
:103AF000FFF736F9FEF75CFDFFF71AFD0C4B1A686D
:103B00009A4204D0996993688A689A4208D300233C
:103B100083F31188019A23689A4205D103B030BD1E
:103B20000448FEF785FCF2E7FDF722FC00080020C0
:103B3000E818002000EB0008000000000000000072
:103B400070B5184E82B00446336801930D46FEF7F7
:103B5000DFFD0CB3E16B94F8203029430A2BE163BD
:103B600016D00B2B05D0019A33689A4218D102B0B7
:103B700070BDA36A8B43F6D1019A336800219A4243
:103B8000A1620DD1204602B0BDE87040FEF708BF2B
:103B9000A36A1942F0D1E6E70348FEF749FCD9E7EA
:103BA000FDF7E6FB0008002050EB000800000000D5
:103BB000F0B5134F83B006463B6801930D46FEF700
:103BC000A7FDB6B13468A6420DD0E3682B43E3608D
:103BD00015B12269134203D0D4E90101FFF7B0FF08
:103BE0002468A642F1D1019A3B689A4205D103B0FC
:103BF000F0BD0448FEF71CFCE4E7FDF7B9FB00BF8D
:103C00000008002030EB0008000000000000000069
:103C100070B50C4CC16082B0266801960A44006001
:103C2000019E02612268069D4060C0E9051196422E
:103C30004FF00001C3618160056201D102B070BD27
:103C4000FDF796FB000800200000000000000000C7
:103C500030B50D4D83B02B6801930446FEF758FD37
:103C600001992A68E368A36100209142A060636122
:103C700007D120466FF0010103B0BDE83040FFF7E7
:103C8000F7BAFDF775FB00BF000800200000000038
:103C900070B5164D82B004462B6801930E46FEF7B0
:103CA00037FDFEF735FDD4E905239A42A36816D007
:103CB0000133511CA36061611670D4E904329A4249
:103CC0000AD220460021FFF7A3FA0020019A2B68B0
:103CD0009A4209D102B070BDE3686361F1E7002B3D
:103CE000E6D06FF00300F1E7FDF742FB000800208B
:103CF000F0B5234F83B03B68019304460E46202362
:103D000083F31188FFF7FCFBFEF732FCE36943B154
:103D10002046984705E031462046FFF751FA051E38
:103D200010DBFEF7F5FCA368002BF4D0A169206935
:103D30004A1C013B8242A360A26128BFE3680D7860
:103D400028BFA361FEF734FCFFF7F2FB0D4B1A68A6
:103D50009A4204D0996993688A689A4209D30023E9
:103D600083F31188019A3B689A42284605D103B033
:103D7000F0BD0548FEF75CFBF1E7FDF7F9FA00BF7F
:103D800000080020E818002060EB00080000000098
:103D90002DE9F04FDFF8F490044685B0D9F8000023
:103DA00003908A461D46D4F81C809346002A60D0B2
:103DB000202383F311880193FFF7A2FBFEF7D8FBC2
:103DC0002F4E0027B8F1000F07D02046C04704E06F
:103DD00029462046FFF7F4F960BBFEF799FCA3687B
:103DE000002BF5D0A269013B511CA161A36013789F
:103DF0000AF8013B2369A2699A4224BFE368A361E0
:103E0000FEF7D6FBFFF794FB3368B34204D0B269E8
:103E10009B6892689A4228D3002383F31188013764
:103E2000BB4519D0019B83F31188FFF769FBFEF7AF
:103E30009FFBC7E7FEF7BCFBFFF77AFB3368B34293
:103E400007D0B2699B6892689A4202D20D48FEF789
:103E5000EFFA002383F31188039AD9F800309A42CD
:103E600038460AD105B0BDE8F08F0648FEF7E0FA03
:103E7000D2E70548FEF7DCFA9AE7FDF779FA00BFCA
:103E8000E818002060EB000870EB00080008002034
:103E900070B50B4D82602E68C16082B0C0E9000031
:103EA00001960A44019E02612A68069C9642C0E976
:103EB0000511C0E9073401D102B070BDFDF758FA11
:103EC00000080020000000000000000000000000CA
:103ED00030B50D4D83B004462B680193FEF718FCF6
:103EE000D4E9032301982968A2619B1A8842626180
:103EF000A36007D120466FF0010103B0BDE8304058
:103F0000FFF7B6B9FDF734FA000800200000000002
:103F10002DE9F0412E4F82B03B680193044688465C
:103F20001646202383F31188FFF7EAFAFEF720FBF9
:103F300005E031462046FFF743F9051E2DDBFEF76D
:103F4000E7FBA368002BF4D06269013B511C61615F
:103F5000A36082F80080D4E904329A4224BFE36867
:103F60006361E3690BB120469847FEF721FBFFF739
:103F7000DFFA184B1A689A4204D0996993688A68E4
:103F80009A421ED3002585F31188019A3B689A4214
:103F900028461AD102B0BDE8F081FEF709FBFFF711
:103FA000C7FA0C4B1A689A4207D0996993688A68D5
:103FB0009A4202D20848FEF73BFA002383F31188A5
:103FC000E3E70548FEF734FADCE7FDF7D1F900BF77
:103FD00000080020E818002060EB00080000000046
:103FE00070B5154E82B0044633680193FEF790FB1E
:103FF000FEF78EFBD4E905329342A36815D0206901
:10400000511C0133A360A161814215780AD2204678
:104010000021FFF7FDF82846019A33689A4209D13A
:1040200002B070BDE368A361F1E7002BE7D06FF049
:104030000200F1E7FDF79CF90008002000000000F5
:104040002DE9F04F04463B48D4F81C90006885B039
:104050000D46039001931646002A61D04FF0200AC6
:104060008AF31188FFF74CFAFEF782FA4FF0000846
:10407000314FC346FEF74CFBA368002B32D0626978
:10408000013B511C6161A3602B781370D4E90432A9
:104090009A4224BFE36863610135B9F1000F01D092
:1040A0002046C847FEF784FAFFF742FA3B68BB4256
:1040B00007D0BA699B6892689A4202D21F48FEF7FD
:1040C000B7F98BF31188013E08F101081FD08AF37C
:1040D0001188FFF715FAFEF74BFAFEF719FBA368F4
:1040E000002BCCD101992046FFF76AF80028C1D0F7
:1040F000FEF75EFAFFF71CFA3B68BB4204D0BA69D0
:104100009B6892689A420FD3002383F31188094B6E
:10411000039A1B689A4240460AD105B0BDE8F08F69
:104120000748FEF785F999E70448FEF781F9EBE7C0
:10413000FDF71EF900080020E818002060EB0008D9
:1041400080EB0008000000000000000000000000FC
:1041500030B50B490B4A0B680B4D0C4C83B022F069
:104160000702019301980A4B09682A6023F00703AC
:104170008842236001D103B030BDFDF7F9F800BFDC
:1041800000080020CF2700205C1F0020581F0020BF
:1041900000000220000000000000000000000000FD
:1041A00070B51C4E82B0336801930446202383F31C
:1041B0001188FFF7A5F9FEF7DBF9FEF7A9FA164A11
:1041C000164B15681B68E01D20F007005B1B98422A
:1041D0009ABF401910600025FEF7EAF9FFF7A8F929
:1041E0000F4B1A689A4204D0996993688A689A4278
:1041F00009D3002383F31188019A33689A42284631
:1042000005D102B070BD0748FEF712F9F1E7FDF7DE
:10421000AFF800BF000800205C1F0020581F0020DE
:10422000E8180020A0EB00080000000000000000DB
:1042300000B50B4B0B481A6883B0019201991A68BC
:10424000094B036091424FF00003C0E9023305D1EE
:10425000103003B05DF804EBFFF76ABAFDF788F899
:1042600000080020601F0020A1410008000000009D
:1042700080B50D4A0D4982B000AF13687B604B6872
:1042800023F001034B60EFF30983683383F309885C
:10429000002383F3118879681368994202D10837A3
:1042A000BD4680BDFDF764F80008002030EF00E057
:1042B000B0B5194C82B000AF23687B60202383F334
:1042C0001188164B5B6813F4006308D183F31188DF
:1042D0007A6823689A421DD10837BD46B0BDF1EE19
:1042E000103AEFF309854FF080720D4B45F84C2CD6
:1042F000DB6845F8083CA5F1680383F30988FEF7FD
:104300008FFC18B1074B45F8503CE1E7064B45F8E8
:10431000503CDDE7FDF72CF80008002000ED00E040
:1043200030EF00E0E1020008F402000800000000A5
:1043300010B5184C82B02368019302F029FD16488D
:1043400004F0BEF900F0D4F800F0EAF900F030FA19
:1043500000F05EFA00F08CFA00F0BAFA00F0E8FA29
:1043600000F016FB01F01CF901F022F801F030FD1D
:1043700001F076FD01F064FB06F02AF9019A23684A
:104380009A4204D102B0BDE8104001F051BDFCF7E3
:10439000EFFF00BF0008002050F1000800000000FF
:1043A000F0B51A4D83B02B68019391420E46144626
:1043B000074619D38B1A1F2B16D806F01F03581C5B
:1043C0006209012376098340B24203F1FF3304F00E
:1043D0001F0457F822000BD31840E040019A2B68C5
:1043E0009A4210D103B0F0BD0948FEF721F8E4E786
:1043F00057F82610C4F120020B4020FA04F403FA07
:1044000002F02043EAE7FCF7B3FF00BF00080020FA
:10441000B0EB0008000000000000000000000000F9
:10442000F0B51D4E83B033680193054670B37E220C
:104430007F212846FFF7B4FF80B1012806D0002075
:10444000019A33689A4225D103B0F0BD2846302244
:104450004521FFF7A5FF01308002F1E73E22492107
:104460002846FFF79DFF2F22044631212846FFF7FB
:1044700097FF5022074653212846FFF791FF01344A
:1044800002370938BC4004FA00F0D9E70348FDF7C9
:10449000CFFFCCE7FCF76CFF00080020D0EB000852
:1044A000F0B5104D83B02B680193044698B194F891
:1044B000D63094F8D770019994F8D4602A6894F8AB
:1044C000D5001B0403EB07633344914203EB002048
:1044D00005D103B0F0BD0448FDF7AAFFE7E7FCF7FC
:1044E00047FF00BF00080020F0EB000800000000BC
:1044F00000B5074B83B01A680192019A1B689A4273
:1045000004D103B05DF804EB02F002BDFCF730FF0C
:104510000008002000000000000000000000000073
:1045200000B50C4B83B01A68019201220270019908
:104530001A6800239142C0E90133C0E903334361A3
:1045400005D1183003B05DF804EBFFF7F1B8FCF7C4
:104550000FFF00BF00080020000000000000000066
:1045600070B51D4D82B02B6801930E46044668B3AA
:10457000202383F31188FEF7C3FFFDF7F9FF2378AB
:10458000013B012B02D91548FDF752FF204666601A
:1045900002F00EFD02232370FEF70AF8FEF7C8FFB3
:1045A0000F4B1A689A4204D0996993688A689A42B4
:1045B00008D3002383F31188019A2B689A4209D10A
:1045C00002B070BD0748FDF733FFF2E70348FDF77F
:1045D0002FFFCDE7FCF7CCFE0008002020EC000800
:1045E000E818002010EC00080000000000000000A7
:1045F0002DE9F041174D82B00446286801900E461F
:1046000090461F46FEF784F83CB136B1B8F1000F72
:1046100003D0012F04D0FB0702D50F48FDF708FF98
:104620002378022B05D0043B012B02D90A48FDF761
:10463000FFFE03232370019A2B6826619A42C4E986
:10464000028705D1204602B0BDE8F04102F030BD3E
:10465000FCF78EFE0008002030EC0008000000008F
:104660002DE9F041184C82B0256801959846054621
:104670000E461746202383F31188FEF741FFFDF70E
:1046800077FF43463A4631462846FFF7B1FFFDF72C
:104690008FFFFEF74DFF0D4B1A689A4204D09969BF
:1046A00093688A689A4209D3002383F31188019A98
:1046B00023689A4206D102B0BDE8F0810448FDF7B4
:1046C000B7FEF1E7FCF754FE00080020E8180020D0
:1046D00010EC0008000000000000000000000000D6
:1046E00030B50B4C83B023680193054650B1019A55
:1046F00023689A420AD105F1180003B0BDE83040A2
:10470000FFF7FEB80348FDF793FEF0E7FCF730FE35
:104710000008002050EC000800000000000000002D
:1047200000B5074B83B01A680192019A1B689A4240
:1047300004D103B05DF804EB03F00ABBFCF718FEEC
:104740000008002000000000000000000000000041
:1047500030B5134B83B01A68019201220270019C9C
:104760001968002200F1180300F11C054260836102
:1047700000F1200200F12403C561026200F1280566
:1047800000F1080243628C4200F110038562C0E927
:104790000222C0E9043301D103B030BDFCF7E8FDCB
:1047A00000080020000000000000000000000000E1
:1047B00000B5074B83B01A680192019A1B689A42B0
:1047C00004D103B05DF804EB03F05ABFFCF7D0FD51
:1047D00000080020000000000000000000000000B1
:1047E00000B50A4B83B01A68019201220270019948
:1047F0001A6800239142C0E9043305D1183003B090
:104800005DF804EBFEF794BFFCF7B2FD0008002052
:1048100000B5074B83B01A680192019A1B689A424F
:1048200004D103B05DF804EB03F0B2BAFCF7A0FDCD
:104830000008002000000000000000000000000050
:1048400000B5084B83B01A68019201220270019AE8
:104850001B6800219A42416002D103B05DF804FB5D
:10486000FCF786FD000800200000000000000000AA
:1048700000B5074B83B01A680192019A1B689A42EF
:1048800004D103B05DF804EB05F022BAFCF770FD2B
:1048900000080020000000000000000000000000F0
:1048A00000B5084B83B01A68019201220270019A88
:1048B0001B6800219A42416002D103B05DF804FBFD
:1048C000FCF756FD0008002000000000000000007A
:1048D00000B5074B83B01A680192019A1B689A428F
:1048E00004D103B05DF804EB04F002B9FCF740FD1D
:1048F0000008002000000000000000000000000090
:1049000000B50A4B83B01A68019201220270019A25
:104910001B6800219A42416005D10C3003B05DF85C
:1049200004EBFEF705BFFCF723FD00BF00080020E5
:1049300000B5074B83B01A680192019A1B689A422E
:1049400004D103B05DF804EB05F0E2B8FCF710FD0C
:10495000000800200000000000000000000000002F
:1049600000B5084B83B01A68019201220270019AC7
:104970001B6800219A42416002D103B05DF804FB3C
:10498000FCF7F6FC0008002000000000000000001A
:1049900000B5074B83B01A680192019A1B689A42CE
:1049A00004D103B05DF804EB05F082BAFCF7E0FC3B
:1049B00000080020000000000000000000000000CF
:1049C00000B5094B83B01A68019201220270019967
:1049D0001A68002391424360C360037402D103B09C
:1049E0005DF804FBFCF7C4FC000800200000000098
:1049F00070B5214E82B0336801930D4604460028FD
:104A000033D0002931D0202383F31188FEF778FDBD
:104A1000FDF7AEFD2378013B012B02D91748FDF7C6
:104A200007FD65606B68A360204605F081FA0022EF
:104A30000223E2602370FDF7BBFDFEF779FD104B0A
:104A40001A689A4204D0996993688A689A4208D38E
:104A5000002383F31188019A33689A4209D102B086
:104A600070BD0848FDF7E4FCF2E70448FDF7E0FC00
:104A7000C9E7FCF77DFC00BF0008002070EC0008CF
:104A8000E818002060EC00080000000000000000B2
:104A9000F0B5214E83B0336801930D4617460446A6
:104AA00078B3037C8B422CD9202383F31188FEF743
:104AB00027FDFDF75DFD2378022B02D01748FDF797
:104AC000B7FCE3680122AA401343E3603A46294653
:104AD000204605F015FBFDF76BFDFEF729FD104B99
:104AE0001A689A4204D0996993688A689A420CD3EA
:104AF000002383F31188019A33689A4209D103B0E5
:104B0000F0BD0648FDF794FCCEE70648FDF790FCA3
:104B1000EEE7FCF72DFC00BF0008002080EC000849
:104B2000E818002060EC0008000000000000000011
:104B300070B5204E82B0336801930D46044678B3B9
:104B4000037C8B422CD9202383F31188FEF7D8FCF9
:104B5000FDF70EFD2378022B02D01748FDF768FC05
:104B6000E3680122AA4023EA0203E36029462046C3
:104B700005F0DEFAFDF71CFDFEF7DAFC0F4B1A68B4
:104B80009A4204D0996993688A689A420CD30023A8
:104B900083F31188019A33689A4209D102B070BD3B
:104BA0000548FDF745FCCEE70548FDF741FCEEE77B
:104BB000FCF7DEFB00080020A0EC0008E81800204D
:104BC00060EC000800000000000000000000000091
:104BD00030B51E4D83B02B680193044680B320236B
:104BE00083F31188FEF78CFCFDF7C2FC2378022BBF
:104BF00002D01748FDF71CFC63689B68E3B12046B0
:104C000005F0B6FAFDF7D4FCFEF792FC114B1A68DA
:104C10009A4204D0996993688A689A4208D300231B
:104C200083F31188019A2B689A420DD103B030BDED
:104C30000948FDF7FDFBF2E70548FDF7F9FBDEE764
:104C40000348FDF7F5FBCAE7FCF792FB00080020DC
:104C5000C0EC0008E818002060EC0008000000002C
:104C600070B5294E82B0336801930D460446002882
:104C700032D0037C8B422FD9202383F31188FEF797
:104C80003FFCFDF775FC2378022B02D01F48FDF78F
:104C9000CFFBE368EB40DB0726D5636803EBC50376
:104CA0001B6953B32946204605F082FAFDF780FCC4
:104CB000FEF73EFC164B1A689A4204D09969936835
:104CC0008A689A420CD3002383F31188019A3368CF
:104CD0009A4216D102B070BD0C48FDF7A9FBCBE794
:104CE0000C48FDF7A5FBEEE70848FDF7A1FB63685C
:104CF00003EBC5031B69002BD4D10448FDF798FBD7
:104D0000D0E7FCF735FB00BF00080020E0EC00080E
:104D1000E818002060EC000800000000000000001F
:104D200070B5104D82B02B6801930E46044650B109
:104D300049B12379052B0CD00120019A2B689A42A6
:104D40000ED102B070BD0848FDF772FB2379052B28
:104D5000F2D1A36A73604FF4007333600020ECE774
:104D6000FCF706FB0008002070ED000800000000C2
:104D70002DE9F047DFF89C8386B002AFD8F8003009
:104D8000FB600446002800F019812379022B01D032
:104D9000052B2BD103232371204603F091F8002229
:104DA0001146204603F004F907F108034FF4D572C9
:104DB0000821204603F044F9E0B9BB680122C3F39F
:104DC00003239342226300F0FD80204603F0B0F8F5
:104DD000022323710125FA68D8F800309A42284648
:104DE00040F046811037BD46BDE8F087C048FDF76A
:104DF0001FFBCFE707F1080300223721204603F00D
:104E00001FF9002840F0BE80BB68BA4A1A40002A49
:104E100040F0B88022631146204603F0C9F8266BA3
:104E200006F00F03022B00F0AF80B34EB34ADFF859
:104E3000C492012B18BF1646642504E0013DC4D07E
:104E40000A20FEF7CDF807F108030022372120469B
:104E500003F0F6F80028B8D1BB6813EA090FB4D103
:104E600007F1080332462921204603F0C1F8002843
:104E7000ABD1BB68002BE1DA5B0003D5236B43F0B9
:104E80001003236304F1080300220221204603F0EB
:104E9000CFF9002899D1024604F1380303212046B6
:104EA00003F0CEF8002890D104F118052B46A26B30
:104EB0000921204603F0BCF9002886D13B1DA26BD6
:104EC0000721204603F0BCF8824600287FF47DAF1E
:104ED000236B03F00F03022B00F097806E467E22B7
:104EE00090B07F212846FFF75BFA0DF108090028F2
:104EF00079D10146B546204603F002F8236B03F052
:104F00000F03022B00F096802846FFF789FAA06273
:104F10003B1D4FF400721021204603F091F8054626
:104F200000287FF452AF7B68724E33427FF44DAF5E
:104F3000236B03F00F03012B40F2B280022B7FF4AE
:104F400044AFE36A1A79012A00F0A88017D3022A35
:104F500040F0E2806A4E1979204603F001F807F12B
:104F6000080332460621204603F06AF800287FF441
:104F70002CAFBA685F4B1340002B7FF426AF05239C
:104F8000237128E7022323635E4E642505E0013D7B
:104F90003FF41BAF0A20FEF723F807F1080332465F
:104FA0000121204603F024F800287FF40EAFBB68EF
:104FB000002BECDA5B007FF565AF5FE74C48FDF74F
:104FC00037FAE2E6024607F108033721204603F0EC
:104FD00037F800287FF4F9AEBA68464B1340002B2F
:104FE0007FF4F3AE1BE7CDF800A00623402249462C
:104FF000204603F04DF900284ED199F80D3013F0FA
:10500000020337D11946B54675E7E36A1B687BB1E1
:1050100007F108033C4A0621204603F011F838B98D
:10502000BB6834491940B1FA81F1490963E7B546D3
:10503000002160E77E227F212846FFF7B1F9012891
:105040007FF662AFE36A1D68002D3FF4BEAE002319
:1050500000934FF4007208232946204603F018F904
:1050600000287FF4B2AE2846FFF71AFAA0624FE795
:10507000FCF77EF9254B0093402206234946204643
:1050800003F006F940B999F8103003F00F030F2B25
:10509000CDD0B54601212EE7B54696E61C4E5AE71F
:1050A000E36A197900293FF46AAF01297FF48DAED4
:1050B000204602F055FF07F10803A26B3721204676
:1050C00002F0BEFF00287FF480AEBB6833427FF45D
:1050D0007CAE07F1080302220621204602F0B0FF51
:1050E00000287FF472AEBB6833423FF448AF6CE6F1
:1050F00020ED000808E0FFFD000010C00000108057
:105100000002B7030080FFC00001B903F1FFFF8078
:105110000001B703000800200248034EFDF788F99C
:10512000E36A18E700ED00080000B7030000000084
:105130002DE9F041194D82B02C6801940F4690463C
:105140001E460446C0B1BAB1B3B12379052B02D0D3
:105150001348FDF76DF9781EA36A304498420FD9C1
:10516000636B43F0800363630120019A2B689A42CA
:1051700011D102B0BDE8F0810948FDF759F9E4E723
:1051800006203346207142463946204603F0E0F9B6
:1051900005232371E9E7FCF7EBF800BF00080020C6
:1051A00040ED0008000000000000000000000000CA
:1051B0002DE9F041194D82B02C6801940F469046BC
:1051C0001E460446C0B1BAB1B3B12379052B02D053
:1051D0001348FDF72DF9781EA36A304498420FD981
:1051E000636B43F0800363630120019A2B689A424A
:1051F00011D102B0BDE8F0810948FDF719F9E4E7E3
:1052000007203346207142463946204603F0E0F934
:1052100005232371E9E7FCF7ABF800BF0008002085
:1052200050ED000800000000000000000000000039
:1052300070B50E4D82B02B680193044680B126797B
:10524000052E06D00120019A2B689A420CD102B09B
:1052500070BD08232371204603F0FAF92671F2E7A6
:105260000348FDF7E5F8EAE7FCF782F800080020BC
:1052700060ED0008000000000000000000000000D9
:1052800070B5124D124E2B6882B0044601936B46E6
:10529000A26B0D21204602F0D3FE78B9009B334269
:1052A0000BD1C3F34323042B08D04FF0010005D3E7
:1052B000072B03D8FDF794FEE9E70120019A2B683C
:1052C0009A4201D102B070BDFCF752F800080020EC
:1052D00008E0FFFD000000000000000000000000EA
:1052E00070B52D4E82B033680193044600284CD02F
:1052F000202383F31188FEF703F9FDF739F92379A9
:10530000022B29D0052B21D104232371FDF750F95D
:10531000FEF70EF9214B1A689A4204D099699368F6
:105320008A689A4229D3002383F311882046FFF725
:10533000A7FF0546204602F0FBFD02232371019AD8
:1053400033689A42284624D102B070BD1448FDF754
:105350006FF82379022BD7D1FDF72AF9FEF7E8F889
:105360000E4B1A689A4204D0996993688A689A42E7
:1053700007D3002585F31188E1E70A48FDF758F8BF
:10538000D1E70848FDF754F8F3E70548FDF750F872
:10539000AEE7FBF7EDFF00BF00080020E818002093
:1053A00030ED000880ED0008000000000000000063
:1053B00000B5074B83B01A680192019A1B689A42A4
:1053C00004D103B05DF804EB02F05ABDFBF7D0FF47
:1053D00000080020000000000000000000000000A5
:1053E00010B50A4B0A4A1968026082B00124019183
:1053F00001991A680471002391424363C0E90A339A
:1054000001D102B010BDFBF7B3FF00BF00080020C0
:1054100090ED000800000000000000000000000007
:1054200030B5084C83B025680195019D2468A542DC
:1054300005D10C3003B0BDE83040FEF7A9BCFBF746
:1054400097FF00BF000800200000000000000000DF
:1054500010B5094B82B01C680194019C1B689C42EA
:1054600007D10C304FF0FF3302B0BDE81040FEF71B
:105470008FBCFBF77DFF00BF00080020000000008C
:1054800030B5084C83B025680195019D2468A5427C
:1054900005D1303003B0BDE83040FEF7D1BDFBF799
:1054A00067FF00BF000800200000000000000000AF
:1054B00010B5094B82B01C680194019C1B689C428A
:1054C00007D130304FF0FF3302B0BDE81040FEF797
:1054D000B7BDFBF74DFF00BF000800200000000033
:1054E00000B5084B83B01A680192019A1B689A4272
:1054F00005D10C3003B05DF804EBFEF7F9BBFBF708
:1055000037FF00BF0008002000000000000000007E
:1055100000B5094B83B01A680192019A1B689A4240
:1055200007D10C304FF0FF3103B05DF804EBFEF70C
:10553000DFBBFBF71DFF00BF0008002000000000DC
:1055400010B5084B82B01C680194019C1B689C42FA
:1055500005D1303002B0BDE81040FEF7D9BCFBF7F2
:1055600007FF00BF0008002000000000000000004E
:1055700000B5094B83B01A680192019A1B689A42E0
:1055800007D130304FF0FF3203B05DF804EBFEF787
:10559000BFBCFBF7EDFE00BF0008002000000000CC
:1055A00000B5074B83B01A680192019A1B689A42B2
:1055B00004D103B05DF804EB04F04ABFFBF7D8FE5A
:1055C00000080020000000000000000000000000B3
:1055D000F0B5144D144B2F68044685B040F8043BD9
:1055E0004FF0010C00940B461646606084F808C02A
:1055F00004F1540104F10C0010220397FEF708FB9C
:1056000033461022009404F1640104F13000FEF7E7
:105610003FFC039A2B689A4201D105B0F0BDFBF71D
:10562000A7FE00BF00080020E0ED00080000000019
:1056300070B51D4D82B02B6801930E46044668B3C9
:10564000202383F31188FDF75BFFFCF791FF237A9A
:10565000013B012B02D91548FCF7EAFE31462046F2
:1056600004F016FF02232372FCF7A2FFFDF760FF90
:105670000F4B1A689A4204D0996993688A689A42D3
:1056800008D3002383F31188019A2B689A4209D129
:1056900002B070BD0748FCF7CBFEF2E70348FCF709
:1056A000C7FECDE7FBF764FE00080020C0ED000850
:1056B000E8180020B0ED0008000000000000000025
:1056C00070B5174D82B004462B6801930E46FDF766
:1056D0001FF8F4B1FDF71CF8636963B1314604F1BA
:1056E0000C00FEF7D5FA0028019A2B6808DB9A42D5
:1056F00013D102B070BD04216018FEF759FAEDE72E
:105700009A420AD1201D802102B0BDE87040FEF708
:105710004FBA0448FCF78CFEDCE7FBF729FE00BF1C
:1057200000080020D0ED000800000000000000008C
:10573000F0B5056A2D4CD5F854222168136883B062
:1057400001911978042905D0019A23689A424AD117
:1057500003B0F0BD297A0229F6D151795889012286
:105760008A400242F0D103EB8103DB685F8AFCF7D9
:10577000CFFFD5E906236E699B1A9E1BB742E3D87B
:10578000FCF716FFFDF7D4FE194B1A689A4207D0B2
:10579000996993688A689A4202D21648FCF748FED3
:1057A000002383F31188D5F85422B6FBF7F351791F
:1057B000106807FB03F305F10C0200F021FC202325
:1057C00083F31188FDF79CFEFCF7D2FE0199226855
:1057D000D5F85432914206D15979186803B0BDE822
:1057E000F04000F04DBCFBF7C3FD00BF00080020F7
:1057F000E818002000EE0008000000000000000093
:1058000030B5084C83B025680195019D2468A542F8
:1058100005D10C3003B0BDE83040FEF7B9BAFBF754
:10582000A7FD00BF000800200000000000000000ED
:1058300010B5094B82B01C680194019C1B689C4206
:1058400007D10C304FF0FF3302B0BDE81040FEF737
:105850009FBAFBF78DFD00BF00080020000000008C
:1058600030B5084C83B025680195019D2468A54298
:1058700005D1303003B0BDE83040FEF7E1BBFBF7A7
:1058800077FD00BF000800200000000000000000BD
:1058900010B5094B82B01C680194019C1B689C42A6
:1058A00007D130304FF0FF3302B0BDE81040FEF7B3
:1058B000C7BBFBF75DFD00BF000800200000000033
:1058C00000B5084B83B01A680192019A1B689A428E
:1058D00005D10C3003B05DF804EBFEF709BAFBF715
:1058E00047FD00BF0008002000000000000000008D
:1058F00000B5094B83B01A680192019A1B689A425D
:1059000007D10C304FF0FF3103B05DF804EBFEF728
:10591000EFB9FBF72DFD00BF0008002000000000DC
:1059200010B5084B82B01C680194019C1B689C4216
:1059300005D1303002B0BDE81040FEF7E9BAFBF700
:1059400017FD00BF0008002000000000000000005C
:1059500000B5094B83B01A680192019A1B689A42FC
:1059600007D130304FF0FF3203B05DF804EBFEF7A3
:10597000CFBAFBF7FDFC00BF0008002000000000CC
:1059800070B5056A294CD5F854222168136882B095
:1059900001911978042905D0019A23689A4242D1CD
:1059A00002B070BD297A0229F6D111791A89012332
:1059B0008B401342F0D1FCF7ABFED5E90F23AE6B61
:1059C0009B1A9E1BE8D0FCF7F3FDFDF7B1FD184BC9
:1059D0001A689A4207D0996993688A689A4202D2F3
:1059E0001448FCF725FD002383F31188D5F85422D1
:1059F00033461179106805F1300200F021FB2023B5
:105A000083F31188FDF77CFDFCF7B2FD0199226854
:105A1000D5F85432914206D11979186802B0BDE820
:105A2000704000F05DBBFBF7A3FC00BF0008002046
:105A3000E818002000EE0008000000000000000050
:105A400000B5064B83B01A680192019A1B689A420E
:105A500002D103B05DF804FBFBF78AFC00080020CC
:105A600030B50346124D13492A6843F8041B85B02C
:105A70000121044600900392436001720E4B00F135
:105A800054014FF480720C30FEF7C2F80B4B0094B7
:105A90004FF4807204F5AA7104F13000FEF7F8F9B2
:105AA000039A2B689A4201D105B030BDFBF760FC28
:105AB0000008002020EE0008315700088159000836
:105AC000F0B5244F0E683B6883B00D460193044641
:105AD000002838D0202383F31188FDF711FDFCF74F
