:020000040800F2
:1000000000040020C1010008E12D0008E12D0008D6
:10001000C1180008E12D0008E12D0008E12D0008BD
:10002000E12D0008E12D0008E12D0008A14E000897
:10003000E12D0008E12D0008E12D000841B800087D
:10004000E12D000871870008018900085189000826
:10005000E12D0008E12D0008B184000801850008A9
:1000600051850008A1850008F18500080177000886
:1000700051770008A1770008F1770008417800085F
:1000800091780008E1780008F1810008F18A000801
:10009000618B0008118C0008C18C000841860008A3
:1000A000E12D0008E12D0008A1B20008E12D0008B3
:1000B00001B4000841B4000881B40008819A000826
:1000C000C19B0008E12D0008E12D0008E12D00088A
:1000D000E12D0008E12D0008E12D000801B900081C
:1000E000D1860008C187000811880008E1B2000825
:1000F000E12D0008E12D0008E12D0008317900080C
:10010000E12D0008518E0008C1B40008E12D00085F
:10011000E12D0008E12D000861B20008E12D000882
:1001200081790008D1790008217A0008717A0008E5
:10013000C17A0008E12D000861880008E12D00085F
:10014000E12D0008E12D0008E12D0008A1AE000816
:10015000117B0008617B0008B17B0008E12D0008DD
:10016000E12D0008E12D0008E12D0008E12D000837
:10017000B1880008E12D000831140008E12D0008C5
:10018000E12D0008E12D0008E12D0008E12D000817
:10019000E12D0008E12D0008E12D0008E12D000807
:1001A000E12D0008E12D0008E12D0008E12D0008F7
:1001B000E12D0008E12D0008E12D0008E12D0008E7
:1001C00072B62E4880F3098840F20000CCF200009D
:1001D0004EF63471CEF20001086040F20000C0F229
:1001E000F0004EF68851CEF2000108604FF000009A
:1001F000E1EE100A4EF63C71CEF2000108600620D6
:1002000080F31488BFF36F8F0BF0C2FC4FF05530B2
:100210001B491C4A91423CBF41F8040BFAE71A49BA
:10022000164A91423CBF41F8040BFAE71749184AB5
:10023000184B9A423EBF51F8040B42F8040BF8E702
:1002400000201549154A91423CBF41F8040BFAE7DA
:1002500002F0AEFD124C134DAC4203DA54F8041B0D
:100260008847F9E701F044F80F4C104DAC4203DA2F
:1002700054F8041B8847F9E702F0AABD00080020E3
:10028000000000200004002000040020380D0108B8
:10029000000800200412002008120020D02B0020AB
:1002A000C0010008C0010008C0010008C00100082A
:1002B0002DE9F04F2DED108AC1F80CD0D0F80CD0FC
:1002C000BDEC108ABDE8F08F02F0CAFE03F000FF1B
:1002D000002383F311882846A047002003F098FCF0
:1002E00003F0DEFE02F09CFE03F0BAFA02F0B8FE64
:1002F00003F0EEFE00DFFEE700000000000000005B
:1003000081F0004102E000BF83F0004330B54FEAC6
:1003100041044FEA430594EA050F08BF90EA020F33
:100320001FBF54EA000C55EA020C7FEA645C7FEAC6
:10033000655C00F0E2804FEA5454D4EB5555B8BFE9
:100340006D420CDD2C4480EA020281EA030382EA5A
:10035000000083EA010180EA020281EA0303362DEC
:1003600088BF30BD11F0004F4FEA01314FF4801CBF
:100370004CEA113102D0404261EB410113F0004FD1
:100380004FEA03334CEA133302D0524263EB430388
:1003900094EA050F00F0A780A4F10104D5F1200E26
:1003A0000DDB02FA0EFC22FA05F2801841F1000181
:1003B00003FA0EF2801843FA05F359410EE0A5F155
:1003C00020050EF1200E012A03FA0EFC28BF4CF086
:1003D000020C43FA05F3C01851EBE37101F000453C
:1003E00007D54FF0000EDCF1000C7EEB00006EEB49
:1003F0000101B1F5801F1BD3B1F5001F0CD34908D3
:100400005FEA30004FEA3C0C04F101044FEA445229
:1004100012F5800F80F09A80BCF1004F08BF5FEAB0
:10042000500C50F1000041EB045141EA050130BD90
:100430005FEA4C0C404141EB010111F4801FA4F133
:100440000104E9D191F0000F04BF01460020B1FA88
:1004500081F308BF2033A3F10B03B3F120020CDAC0
:100460000C3208DD02F1140CC2F10C0201FA0CF09E
:1004700021FA02F10CE002F11402D8BFC2F1200C03
:1004800001FA02F120FA0CFCDCBF41EA0C019040B9
:10049000E41AA2BF01EB0451294330BD6FEA040402
:1004A0001F3C1CDA0C340EDC04F11404C4F12002ED
:1004B00020FA04F001FA02F340EA030021FA04F3FF
:1004C00045EA030130BDC4F10C04C4F1200220FA56
:1004D00002F001FA04F340EA0300294630BD21FA94
:1004E00004F0294630BD94F0000F83F4801306BF5A
:1004F00081F480110134013D4EE77FEA645C18BF4E
:100500007FEA655C29D094EA050F08BF90EA020FE4
:1005100005D054EA000C04BF1946104630BD91EADC
:10052000030F1EBF0021002030BD5FEA545C05D1DF
:100530004000494128BF41F0004130BD14F580041E
:100540003CBF01F5801130BD01F0004545F0FE4192
:1005500041F470014FF0000030BD7FEA645C1ABFC7
:10056000194610467FEA655C1CBF0B46024650EAFE
:10057000013406BF52EA033591EA030F41F400212A
:1005800030BD00BF90F0000F04BF0021704730B5B0
:100590004FF4806404F132044FF000054FF0000185
:1005A00050E700BF90F0000F04BF0021704730B546
:1005B0004FF4806404F1320410F0004548BF40421B
:1005C0004FF000013EE700BF42004FEAE2014FEA70
:1005D00031014FEA02701FBF12F07F4393F07F4F4B
:1005E00081F06051704732F07F4208BF704793F04E
:1005F0007F4F04BF41F40021704730B54FF4607461
:1006000001F0004521F000411CE700BF50EA010263
:1006100008BF704730B54FF000050AE050EA01020C
:1006200008BF704730B511F0004502D5404261EB7C
:1006300041014FF4806404F132045FEA915C3FF4BD
:10064000D8AE4FF003025FEADC0C18BF03325FEA5A
:10065000DC0C18BF033202EBDC02C2F1200300FA0B
:1006600003FC20FA02F001FA03FE40EA0E0021FA30
:1006700002F11444BDE600BF0000000000000000CD
:1006800070B54FF0FF0C4CF4E06C1CEA11541DBF28
:100690001CEA135594EA0C0F95EA0C0F00F0DEF8F3
:1006A0002C4481EA030621EA4C5123EA4C5350EAD8
:1006B000013518BF52EA033541F4801143F4801329
:1006C00038D0A0FB02CE4FF00005E1FB02E506F0BA
:1006D0000042E0FB03E54FF00006E1FB03569CF00F
:1006E000000F18BF4EF0010EA4F1FF04B6F5007F15
:1006F00064F5407404D25FEA4E0E6D4146EB060687
:1007000042EAC62141EA55514FEAC52040EA5E500F
:100710004FEACE2EB4F1FD0C88BFBCF5E06F1ED8B9
:10072000BEF1004F08BF5FEA500E50F1000041EBF0
:10073000045170BD06F0004646EA010140EA02009D
:1007400081EA0301B4EB5C04C2BFD4EB0C0541EABF
:10075000045170BD41F480114FF0000E013C00F3D4
:10076000AB8014F1360FDEBF002001F0004170BDF8
:10077000C4F10004203C35DA0C341BDC04F1140411
:10078000C4F1200500FA05F320FA04F001FA05F29D
:1007900040EA020001F0004221F0004110EBD3706A
:1007A00021FA04F642EB06015EEA430E08BF20EA96
:1007B000D37070BDC4F10C04C4F1200500FA04F339
:1007C00020FA05F001FA04F240EA020001F00041CB
:1007D00010EBD37041F100015EEA430E08BF20EA3E
:1007E000D37070BDC4F1200500FA05F24EEA020E86
:1007F00020FA04F301FA05F243EA020321FA04F0B5
:1008000001F0004121FA04F220EA020000EBD3706B
:100810005EEA430E08BF20EAD37070BD94F0000F6B
:100820000FD101F00046400041EB010111F4801F9F
:1008300008BF013CF7D041EA060195F0000F18BF50
:10084000704703F00046520043EB030313F4801F8C
:1008500008BF013DF7D043EA0603704794EA0C0F46
:100860000CEA135518BF95EA0C0F0CD050EA41065C
:1008700018BF52EA4306D1D181EA030101F00041D9
:100880004FF0000070BD50EA410606BF1046194601
:1008900052EA430619D094EA0C0F02D150EA01360D
:1008A00013D195EA0C0F05D152EA03361CBF10464E
:1008B00019460AD181EA030101F0004141F0FE41ED
:1008C00041F470014FF0000070BD41F0FE4141F471
:1008D000780170BD70B54FF0FF0C4CF4E06C1CEA71
:1008E00011541DBF1CEA135594EA0C0F95EA0C0F26
:1008F00000F0A7F8A4EB050481EA030E52EA0335E1
:100900004FEA013100F088804FEA03334FF0805501
:1009100045EA131343EA12634FEA022245EA11152E
:1009200045EA10654FEA00260EF000419D4208BFDF
:10093000964244F1FD0404F5407402D25B084FEA8C
:100940003202B61A65EB03055B084FEA32024FF438
:1009500080104FF4002CB6EB020E75EB030E22BF95
:10096000B61A754640EA0C005B084FEA3202B6EB55
:10097000020E75EB030E22BFB61A754640EA5C0004
:100980005B084FEA3202B6EB020E75EB030E22BF94
:10099000B61A754640EA9C005B084FEA3202B6EB95
:1009A000020E75EB030E22BFB61A754640EADC0054
:1009B00055EA060E18D04FEA051545EA16754FEAB6
:1009C00006164FEAC30343EA52734FEAC2025FEAD4
:1009D0001C1CC0D111F4801F0BD141EA00014FF063
:1009E00000004FF0004CB6E711F4801F04BF014334
:1009F0000020B4F1FD0C88BFBCF5E06F3FF6AFAE50
:100A0000B5EB030C04BFB6EB020C5FEA500C50F1DF
:100A1000000041EB045170BD0EF0004E4EEA113162
:100A200014EB5C04C2BFD4EB0C0541EA045170BD69
:100A300041F480114FF0000E013C90E645EA060EAD
:100A40008DE60CEA135594EA0C0F08BF95EA0C0FDB
:100A50003FF43BAF94EA0C0F0AD150EA01347FF423
:100A600034AF95EA0C0F7FF425AF104619462CE7FA
:100A700095EA0C0F06D152EA03353FF4FDAE10465D
:100A8000194622E750EA410618BF52EA43067FF4AE
:100A9000C5AE50EA41047FF40DAF52EA43057FF43E
:100AA000EBAE12E7000000000000000000000000B4
:100AB0004FEA410212F5001215D211D56FF4787386
:100AC000B3EB625212D94FEAC12343F0004343EA29
:100AD000505311F0004F23FA02F018BF4042704704
:100AE0004FF00000704750EA013005D111F000408E
:100AF00008BF6FF0004070474FF00000704700BF24
:100B00004FEA4102B2F1E04324BFB3F5001CDCF12F
:100B1000FE5C0DD901F0004C4FEAC0024CEA507067
:100B2000B2F1004F40EB830008BF20F00100704796
:100B300011F0804F21D113F13872BCBF01F0004099
:100B4000704741F480114FEA5252C2F11802C2F1CB
:100B5000200C10FA0CF320FA02F018BF40F001004C
:100B60004FEAC1234FEAD32303FA0CFC40EA0C00FE
:100B700023FA02F34FEA4303CCE77FEA625307D13B
:100B800050EA01331EBF4FF0FE4040F44000704772
:100B900001F0004040F0FE4040F40000704700BF0C
:100BA00053B94AB9002908BF00281CBF4FF0FF31D4
:100BB0004FF0FF3000F074B9ADF1080C6DE904CED0
:100BC00000F006F8DDF804E0DDE9022304B0704728
:100BD0002DE9F047089E04468846002B4BD18A42F7
:100BE000154667D9B2FA82F24AB1C2F1200701FA7A
:100BF00002F320FA07F7954047EA030894404FEACA
:100C0000154E230CB8FBFEF71FFA85FC0EFB178868
:100C100043EA084307FB0CF1994209D9EB1807F1A5
:100C2000FF3080F01B81994240F21881023F2B4433
:100C30005B1AA4B2B3FBFEF00EFB103344EA03448C
:100C400000FB0CFCA44509D92C1900F1FF3380F0FE
:100C50000781A44540F2048102382C4440EA074051
:100C6000A4EB0C0400271EB1D4400023C6E90043C6
:100C70003946BDE8F0878B4209D9002E00F0EB80A1
:100C80000027C6E9000138463946BDE8F087B3FAC7
:100C900083F7002F47D18B4202D3824200F2FA80C1
:100CA000841A61EB030301209846002EE0D0C6E9C8
:100CB0000048DDE702B9FFDEB2FA82F2002A40F016
:100CC0008F80491B4FEA154E1FFA85F80127B1FBAB
:100CD000FEFC230C0EFB1C1143EA014308FB0CF144
:100CE000994207D9EB180CF1FF3002D2994200F279
:100CF000CD808446591AA3B2B1FBFEF00EFB10144E
:100D000043EA044408FB00F8A04507D92C1900F178
:100D1000FF3302D2A04500F2B6801846A4EB0804C7
:100D200040EA0C409FE7C7F1200CBB4022FA0CFEC2
:100D30004EEA030E01FA07F420FA0CF521FA0CF33F
:100D40004FEA1E482543B3FBF8F92C0C08FB193376
:100D50001FFA8EFA44EA034309FB0AF49C4202FAA2
:100D600007F200FA07F10BD91EEB030309F1FF307C
:100D700080F087809C4240F28480A9F1020973448C
:100D80001B1BADB2B3FBF8F008FB103345EA03447C
:100D900000FB0AFAA24508D91EEB040400F1FF3358
:100DA0006BD2A24569D90238744440EA0940A0FBDD
:100DB0000289A4EB0A044C45C2464B4654D351D099
:100DC000002E69D0B1EB0A0564EB030404FA0CFCB5
:100DD000FD40FC404CEA0505C6E90054002747E702
:100DE000C2F1200320FA03F7954001FA02F021FA3C
:100DF00003F34FEA154E3843010CB3FBFEF71FFA1D
:100E000085F80EFB173341EA034107FB08F38B42D9
:100E100004FA02F407D9691807F1FF3C2FD28B427C
:100E20002DD9023F2944CB1A81B2B3FBFEF00EFB51
:100E3000103341EA034100FB08F38B4207D96918DC
:100E400000F1FF3C17D28B4215D902382944C91A48
:100E500040EA07473BE73746304609E70746E7E6FB
:100E60001846FBE64145ABD2B8EB020A69EB0E022D
:100E700001381346A4E76046E9E7184695E7674658
:100E8000D1E781467CE702382C4447E7ACF1020CFD
:100E90002B442FE7384608E73746E9E60000000014
:100EA000704700BF000000000000000000000000CC
:100EB000844641EA000313F003036DD1403A41D365
:100EC00051F8043B40F8043B51F8043B40F8043B24
:100ED00051F8043B40F8043B51F8043B40F8043B14
:100EE00051F8043B40F8043B51F8043B40F8043B04
:100EF00051F8043B40F8043B51F8043B40F8043BF4
:100F000051F8043B40F8043B51F8043B40F8043BE3
:100F100051F8043B40F8043B51F8043B40F8043BD3
:100F200051F8043B40F8043B51F8043B40F8043BC3
:100F300051F8043B40F8043B51F8043B40F8043BB3
:100F4000403ABDD2303211D351F8043B40F8043B53
:100F500051F8043B40F8043B51F8043B40F8043B93
:100F600051F8043B40F8043B103AEDD20C3205D363
:100F700051F8043B40F8043B043AF9D2043208D05B
:100F8000D2071CBF11F8013B00F8013B01D30B88CD
:100F900003806046704700BF082A13D38B078DD0AB
:100FA00010F003038AD0C3F10403D21ADB071CBF7D
:100FB00011F8013B00F8013B80D331F8023B20F8E7
:100FC000023B7BE7043AD9D3013A11F8013B00F820
:100FD000013BF9D20B7803704B7843708B788370A8
:100FE00060467047000000000000000000000000A4
:100FF00090F800F06DE9024520F007016FF0000C59
:1010000010F0070491F820F040F049804FF0000400
:101010006FF00700D1E9002391F840F000F10800DB
:1010200082FA4CF2A4FA8CF283FA4CF3A2FA8CF313
:101030004BBBD1E9022382FA4CF200F10800A4FA7A
:101040008CF283FA4CF3A2FA8CF3E3B9D1E90423CE
:1010500082FA4CF200F10800A4FA8CF283FA4CF305
:10106000A2FA8CF37BB9D1E9062301F1200182FABF
:101070004CF200F10800A4FA8CF283FA4CF3A2FAC5
:101080008CF3002BC6D0002A04BF04301A4612BAD3
:10109000B2FA82F2FDE8024500EBD2007047D1E9D6
:1010A000002304F00305C4F100004FEAC50514F065
:1010B000040F91F840F00CFA05F562EA05021CBF36
:1010C00063EA050362464FF00004A9E70000000050
:1010D00001F0FF01102A2BDB10F0070F08D010F8E9
:1010E000013B013A8B422DD010F0070F42B3F6D1ED
:1010F000F0B441EA012141EA014122F007047FF006
:1011000000070023F0E80256083C85EA010586EA5C
:10111000010685FA47F5A3FA87F586FA47F6A5FA98
:1011200087F68EB9EED1F0BC01F0FF0102F00702A4
:1011300032B110F8013B013A83EA010313B1F8D14F
:101140000020704701387047002D06BF3546033830
:10115000073815F0010F07D1013015F4807F02BF69
:10116000013015F4C03F0130F0BC0138704700BFBA
:101170004FF0FF3C06E000BF4FF0010C02E000BF63
:101180004FF0010C4DF804CD4FEA410C7FEA6C5C46
:101190004FEA430C18BF7FEA6C5C1BD001B050EAE9
:1011A000410C0CBF52EA430C91EA030F02BF90EAD4
:1011B000020F0020704710F1000F91EA030F58BF93
:1011C000994208BF90422CBFD8176FEAE37040F0F5
:1011D000010070474FEA410C7FEA6C5C02D150EA93
:1011E000013C07D14FEA430C7FEA6C5CD6D152EA4E
:1011F000033CD3D05DF8040B704700BF8446104613
:1012000062468C461946634600E000BF01B5FFF711
:10121000B7FF002848BF10F1000F01BD4DF808EDE1
:10122000FFF7F4FF0CBF012000205DF808FB00BFB2
:101230004DF808EDFFF7EAFF34BF012000205DF80C
:1012400008FB00BF4DF808EDFFF7E0FF94BF012059
:1012500000205DF808FB00BF4DF808EDFFF7CEFF5A
:1012600094BF012000205DF808FB00BF4DF808ED99
:10127000FFF7C4FF34BF012000205DF808FB00BF6A
:101280004FEA410C7FEA6C5C02D150EA013C0AD182
:101290004FEA430C7FEA6C5C02D152EA033C02D174
:1012A0004FF0000070474FF0010070470000000051
:1012B0000EB410B50A4C0B4923680B4883B0019358
:1012C00006AB1A4600930AF0BBFC019A23689A42C7
:1012D00004D103B0BDE8104003B0704700F068F8D7
:1012E00000080020A0FB0008242B002000000000C4
:1012F000F0B52DED028B264B264E1B68264F85B090
:10130000039303F02DFE01F083FD00F081FA234AE0
:101310002349244801F09CFC2349304605F040F95C
:1013200001F0B6FB00F04CFD01F0E2FA00F020FF06
:1013300000F06EFF01F02CFB0A2000F029FD0A20CE
:1013400000F00EFD002000F043FF08EE900A02209E
:1013500000F03EFFF8EEE87A08EE100A17EE900A69
:10136000FFF732F9F8EEC87A044617EE900A0D46F8
:10137000FFF72AF92246CDE900012B4639463046CF
:10138000FFF796FF4FF4C87002F082FBDAE700BF68
:1013900000080020242B0020A0FB000804080020E7
:1013A0000C08002008120020200800200000000087
:1013B00000B5084B83B01A680192019A1B689A42E3
:1013C00005D1054803B05DF804EB01F089BDFFF7D6
:1013D000EFFF00BF0008002080FB000800000000B5
:1013E00030B5104D81682B680F4A83B001930B68AC
:1013F00023F001030B608168946A03E0936A1B1B6E
:10140000C72B09D8086810F00100F7D1019A2B68A2
:101410009A4204D103B030BD4FF0FF30F6E7FFF73A
:10142000C7FF00BF00080020F01C002000000000E3
:10143000F0B5284D83B02B68019302F0F9FD01F05F
:101440006FFE254B1E69F20715D55A69234C42F0F1
:1014500001025A612778BB1F012B2AD90522636834
:1014600022701B680BB120469847042F27D0022F0B
:1014700025D003232370B30710D5174A174C53699F
:1014800043F0020353612378032B1DD063689B68EC
:101490000622227013B101211048984701F068FE1E
:1014A000019A2B689A4213D103B0BDE8F04003F0D3
:1014B00017BD019A2B689A420AD103B0F0BD0223EE
:1014C0002370B307EAD5D8E72046FFF789FFDDE7A9
:1014D000FFF76EFF000800200000055014120020E6
:1014E00070B5164E16483368154D82B005224FF47C
:1014F0008071019308F0E4F920246B6983F4807310
:101500006B61012002F0C4FA631E13F0FF04F4D1F2
:101510004FF4807140F206222983094808F0D0F97F
:10152000019A33689A4206D10649074802B0BDE8DD
:10153000704004F015B8FFF73BFF00BF0008002023
:1015400000040240C0FB00087027002000000000DB
:1015500000B50C4A0C4B1278196883B0012A01912E
:10156000019A1B6804D09A4209D103B05DF804FBCC
:101570009A4204D103B05DF804EBFFF7B1BFFFF767
:1015800017FF00BF702700200008002000000000A7
:101590002DE9F041224C234E88B0002335688DF8A8
:1015A0001830804620468DF814101746079504F031
:1015B000EFF82378012B0CD00420012306AACDE9F3
:1015C00001300092414605AA204604F071F8054614
:1015D00068B9134804F0FCF89DF818303B700020FF
:1015E000079A33689A4218D108B0BDE8F0812046C6
:1015F00004F046F823780C4A052B106004D0084804
:1016000004F0E6F868B2EBE7204603F0F1FF237838
:10161000012BF4D1FFF764FFF1E7FFF7C9FE00BF2C
:1016200070270020000800202C120020000000007D
:10163000F0B5214C214E89B0336807930746002549
:1016400020468DF818108DF819208DF8145004F0EC
:101650009FF82378012B0CD0042205AB0195029250
:1016600000933946022306AA204604F021F80546D5
:1016700048B9114804F0ACF80020079A33689A4240
:1016800017D109B0F0BD204603F0FAFF23780C4AC9
:10169000052B106004D0084804F09AF868B2ECE713
:1016A000204603F0A5FF2378012BF4D1FFF718FFA4
:1016B000F1E7FFF77DFE00BF702700200008002043
:1016C0002C120020000000000000000000000000BC
:1016D0002DE9F0431F4C204E89B035688DF8171066
:1016E0000746204690469946079504F051F8217820
:1016F00001290CD004230293CDE900893946012346
:101700000DF11702204603F0D3FF054650B91148EA
:1017100004F05EF80020079A33689A4218D109B0A5
:10172000BDE8F083204603F0ABFF23780B4A052B7E
:10173000106004D0074804F04BF868B2EBE720468D
:1017400003F056FF2378012BF4D1FFF7C9FEF1E730
:10175000FFF72EFE70270020000800202C1200202A
:101760002DE9F043254E83B034680194042A9DF896
:101770002890144605460F46984639D9B9F1000F0E
:1017800014BF00224FF08052640002EB0863013C5A
:101790001C4405F00F0527F01F07202383F3118851
:1017A00002F07EFC3D4301F03BFC154B1035DD6043
:1017B0001C6101F055FC02F08BFC124B1A689A4236
:1017C00004D0996993688A689A420DD3002383F301
:1017D0001188BFF36F8FBFF34F8F019A33689A421E
:1017E0000AD103B0BDE8F083074801F079FBEDE7CB
:1017F000064801F075FBC1E7FFF7DAFD000800209D
:1018000090ED00E0F01C002050FC000830FC0008C7
:1018100030B5224D224C2B68224A85B00393636871
:1018200043F004036360536A43F48033536220231C
:1018300083F3118802F034FC01F0F2FB17221A4BFB
:10184000E260236101F00CFC02F042FC174B1A68C5
:101850009A4204D0996993688A689A4218D3002002
:1018600080F31188BFF36F8FBFF34F8F03231D22C7
:1018700000904FF00051FFF773FF094A536843F09F
:1018800001035360039A2B689A4205D105B030BD1D
:10189000074801F025FBE2E7FFF78AFD000800207A
:1018A00090ED00E000ED00E009000010F01C0020C9
:1018B00050FC0008000000000000000000000000D4
:1018C00070B51A4D1A4C1B4E0FCD0FC49EB02A682E
:1018D000336822801D93EFF30981682203A8FFF784
:1018E000E7FA154B9D6AAA0714D4EB0708D5124BEB
:1018F00008995B6B114A00910D4880210AF088FF1E
:101900001D9A33689A420FD109481EB0BDE8704055
:1019100001F0E6BA099A5B6B0092A4F11000084A44
:1019200080210AF075FFE0E7FFF742FD14FC000894
:10193000301200200008002000ED00E0F0FB00085D
:10194000D0FB0008000000000000000000000000C4
:1019500000B51F4B0278196883B00191E2B11D4AAE
:101960004FF4005111834278EAB11A4A4FF4805182
:1019700011838278F2B1174A4FF480411183C27803
:10198000FAB9144A4FF400415183019A1B689A42F4
:101990001CD103B05DF804FB0E4A4FF40051518393
:1019A0004278002AE1D10B4A4FF48051518382786A
:1019B000002AE0D1074A4FF480415183C278002ABF
:1019C000DFD0044A4FF400411183DEE7FFF7F0FC5B
:1019D000000800200010024000000000000000008D
:1019E00000B51F4B0278196883B00191E2B11D4A1E
:1019F0004FF4007111834278EAB11A4A4FF48071B2
:101A000011838278F2B1174A4FF400611183C278D2
:101A1000FAB9144A4FF480615183019A1B689A42C3
:101A20001CD103B05DF804FB0E4A4FF400715183E2
:101A30004278002AE1D10B4A4FF4807151838278B9
:101A4000002AE0D1074A4FF400615183C278002A8E
:101A5000DFD0044A4FF480611183DEE7FFF7A8FC72
:101A600000080020001002400000000000000000FC
:101A700030B50C4A0C4B116883B04FF400550191FE
:101A80004FF480544FF400414FF480405D835C83F9
:101A90005883598301991368994201D103B030BD2D
:101AA000FFF786FC00080020001002400000000044
:101AB00030B50C4A0C4B116883B04FF4007501919E
:101AC0004FF480744FF480614FF400605D835C8359
:101AD0005883598301991368994201D103B030BDED
:101AE000FFF766FC00080020001002400000000024
:101AF00010B50B4C0B48236882B09922002101934A
:101B000003F07EFF019A23689A4206D1054800211E
:101B100002B0BDE8104004F05BB8FFF749FC00BF1D
:101B200000080020D02A0020000000000000000073
:101B300010B50B4C0B48236882B099220021019309
:101B400003F05EFF019A23689A4206D105480021FE
:101B500002B0BDE8104004F03BB8FFF729FC00BF1D
:101B600000080020EC2A0020000000000000000017
:101B700000B5084B83B01A680192019A1B689A421B
:101B800006D10548002103B05DF804EB03F088BFDF
:101B9000FFF70EFC00080020D02A00200000000003
:101BA00000B5084B83B01A680192019A1B689A42EB
:101BB00006D10548002103B05DF804EB03F070BFC7
:101BC000FFF7F6FB00080020EC2A002000000000D0
:101BD00070B51A4C1A4E2378326882B0022B0192EB
:101BE000A26811D165781748013505F0070500EBAB
:101BF0008500904763686570013B6360019A3368B4
:101C00009A4219D102B070BD012B08D001993368F6
:101C1000994211D10C4802B0BDE870401047657878
:101C20000848013D05F0070500EB85009047636813
:101C3000657001336360E1E7FFF7BAFBC81200206B
:101C400000080020F0FC0008E0FC00080000000094
:101C500070B51A4C1A4E2378326882B0012B01926B
:101C6000A26811D165781748013505F0070500EB2A
:101C7000850090476368657001336360019A33683B
:101C80009A4219D102B070BD022B08D00199336875
:101C9000994211D10C4802B0BDE8704010476578F8
:101CA0000848013D05F0070500EB85009047636893
:101CB0006570013B6360E1E7FFF77AFBB01200203B
:101CC00000080020F0FC0008E0FC00080000000014
:101CD00030B51F4D85B02B68039340F24C439942B9
:101CE000044626DCA3F69803994211DB4B00002B37
:101CF00029D10370036998474FF47A71039A2B68CE
:101D00009A421ED1606905B0BDE8304003F030BE94
:101D1000104B02225B42227040F2892293420E490C
:101D200091FBF3F189B207DC0191E36898470199CF
:101D3000E4E7012303702D2101912369984701995C
:101D4000DCE7FFF735FBE4DD01220270E4E700BFCA
:101D50000008002068F7FFFFA086010000000000D7
:101D600000B5084B83B01A680192019A1B689A4229
:101D700006D10146044803B05DF804EBFFF7A8BFA5
:101D8000FFF716FB00080020B01200200000000042
:101D900000B5084B83B01A680192019A1B689A42F9
:101DA00006D10146044803B05DF804EBFFF790BF8D
:101DB000FFF7FEFA00080020C81200200000000013
:101DC00070B51D4E1D4A1E4B30681E491E4C916059
:101DD00082B00021D46001901C4C1D481D4D9D60B7
:101DE000117051705160106154611B481B4A1C4DA9
:101DF000D8601C48197059705960C3E90425FFF771
:101E0000A7FD1848FFF7ECFD1749204603F060FDD9
:101E1000204603F095FE2846144903F059FD019A27
:101E200033689A4205D1284602B0BDE8704003F0FD
:101E300087BEFFF7BDFA00BF00080020C8120020CF
:101E4000B012002051190008F11A0008D02A002011
:101E5000711B0008E1190008311B0008A11B0008D4
:101E6000EC2A0020E0FC0008A0FC000860FC000850
:101E70000A490B4B09680B4A82B02020019140218E
:101E800058834FF4806559834FF400644FF48040C9
:101E900004215D835C8358835183FEE700080020A2
:101EA000000C02400004024000000000000000009E
:101EB0002DE9F04F7D4C7E4AA3697E489A617E4AA7
:101EC000AFB0012312682D920CA91A4602F008FC4B
:101ED00011AD0AAB50222946009216A81A46CDE948
:101EE0001155CDE90A330025744B1595CDE91355ED
:101EF00000F0C6FE16A9724A724800F0E9FEA36916
:101F000093F8216016F0040640F083806B4FDFF8F1
:101F1000E0B1DFF8E091DFF8E08107F13403B24689
:101F2000CDE9076609933FE05022644916A800F006
:101F3000FFFE99F80030B3B1634A1378002B70D0DC
:101F4000012B10D1614B07981B78614A03F11401F2
:101F5000127837F911C008990130C0B26144824249
:101F60000790089171D098F80030A3B1594A1378BE
:101F7000002B60D0012B0ED1574B584A1B7812789A
:101F800007EB43010AF1010AB1F92E105FFA8AFA50
:101F900052450E4472D0291D284601F0B9FDA369AF
:101FA00093F821305B0734D4202383F3118802F0A7
:101FB00077F801F035F8A56A01F052F802F088F8D8
:101FC0002368A34207D0A2699B6892689A4202D212
:101FD000434800F085FF002383F311889BF800300D
:101FE000002BA1D03F48099900F11203A0F1120281
:101FF0000493A0F10C03CDE90201CDE90032A0F178
:102000003A01A0F11E03A0F122022E3800F0D8F907
:102010008AE7294B2D9A1B689A4245D12FB0BDE81B
:10202000F08F2A4908930978079307EB41010120B3
:102030008B86107097E72849097807EB410101204A
:102040001E464B879A461070A5E70A4692FBF0F2AF
:10205000254890F800E003F1200112B24FF0000C87
:10206000BEF1010F27F8112089F800C07FF47BAF83
:1020700007EB430380F800C09A8674E71B4896FB81
:10208000FAF290F800E007EB430112B24FF0000CB7
:10209000BEF1010FA1F8462088F800C07FF47BAFA5
:1020A00080F800C04A8776E7FFF782F9F01C00202D
:1020B00010FD0008281200200008002070160020E3
:1020C00030FD000808120020E1120020E21200207A
:1020D000E4120020E6120020E7120020E91200209E
:1020E00020FD0008AA160020E3120020E8120020BC
:1020F000F0120020E0120020E51200200000000095
:1021000070B5124B124E1B78326882B004460192B1
:102110007BB11048104A114D114B04700020107013
:1021200001222A701970142001F0B2FC2B78002BC8
:10213000F9D1019A33680B4920349A4231F91400DD
:1021400001D102B070BDFFF733F900BFF0120020DB
:1021500000080020E2120020E1120020E01200201E
:10216000E4120020701600200000000000000000B3
:1021700030B5124D124C2B78226885B003922BB1EA
:10218000039A23689A4216D105B030BDFFF7E0F9F3
:102190004FF4C84000F06CF808B901232B700023FD
:1021A00000930848084B40224FF45E7101F018FC80
:1021B000064B1860E4E7FFF7FBF800BFF0120020C1
:1021C00000080020F8120020B11E0008EC120020C8
:1021D00000B50A4B83B01A68019202289BBF084AD7
:1021E0001430002032F91000019A1B689A4202D183
:1021F00003B05DF804FBFFF7DBF800BF0008002028
:102200007016002000000000000000000000000028
:1022100070B5114B114C1B78226882B0019293B1BA
:102220000F4D0126322100202E70FFF769FF322169
:1022300030462E70FFF764FF322102202E70FFF728
:102240005FFF00232B70019A23689A4201D102B0EC
:1022500070BDFFF7ADF800BFF012002000080020AD
:10226000E312002000000000000000000000000059
:10227000F0B5504D504C2B6883B007460193207841
:10228000002380226B218DF80330FFF7D1F958B17C
:102290002378682B0CBF6920682080226B21207076
:1022A000FFF7C6F900287CD1012001F0F1FB682678
:1022B00002E0012001F0ECFB0DF103026B2120781C
:1022C000FFF766F978B12378682B0CBF6920682086
:1022D0000DF103024FF06B010CBF20702670FFF769
:1022E00057F900285DD19DF90330002BE1DB7E001A
:1022F00006F0180632461B212078FFF799F958B1ED
:102300002378682B0CBF6920682032461B2120707F
:10231000FFF78EF9002844D1FE00012006F01806D0
:1023200001F0B6FB32461C212078FFF781F950B14D
:102330002378682B0CBF6920682032461C2120704E
:10234000FFF776F968BB0120C7F3072701F0A0FB70
:102350003A4619212078FFF76BF950B12378682BA2
:102360000CBF692068203A4619212070FFF760F9F8
:10237000B8B9012001F08CFB012238212078FFF749
:1023800057F950B12378682B0CBF692068200122CF
:1023900038212070FFF74CF918B9012001F078FBC3
:1023A0000020019A2B689A4201D103B0F0BDFEF7DC
:1023B000FFFF00BF000800202C08002000000000E4
:1023C0002DE9F04F87B01E46DDE912B3DFF8289201
:1023D000DFF828A20393149BD9F800400292074625
:1023E000884601939AF800007C4A059416233A2106
:1023F000DDE91045FFF76CF978B19AF80030774ABB
:10240000682B0CBF6920682016233A218AF8000047
:10241000FFF75EF9002840F0D480019B1BB16F4BA1
:10242000019A1B781370B8F1000F4AD06B4A9FEDE8
:102430006C6A92F901109378DFED6A6ADFED6A5AEF
:1024400043EA01235B421BB22B80117992F903000E
:1024500041EA00214942698092F90510927942EAE5
:10246000012252420399AA80B1F900209B1A07EE7B
:10247000103AB8EEC77A27EE067A27EE267A88ED6C
:10248000007AB1F90220B5F902309B1A07EE103A32
:10249000B8EEC77A27EE067A27EE267A88ED017A1B
:1024A000B5F90430B1F904209B1A07EE903AF8EE22
:1024B000E77A77EEE57A67EE867A67EEA67AC8ED78
:1024C000027A0298A8B1454A9FED486A92F907102E
:1024D000137A43EA012307EE903AF8EEE77AF3EE37
:1024E000056A77EEE67A87EE867A77EE267AC0ED91
:1024F000007A002F39D0394ADFED3D6A92F9091090
:10250000937A43EA0123238092F90B00117B41EA7D
:102510000021618092F90D10927B42EA0122A28093
:10252000BBF900209B1A07EE903AF8EEE77A67EEC7
:10253000A67AC7ED007ABBF90220B4F902309B1AE3
:1025400007EE103AB8EEC77A27EE267A87ED017AC1
:10255000B4F90430BBF904209B1A07EE903AF8EE68
:10256000E77A67EEA67AC7ED027A96B31B4ADFEDEB
:10257000216A92F91010D37B43EA012307EE103A47
:10258000B8EEC77A002027EE267A86ED007A92F917
:102590001210537C43EA012307EE103AB8EEC77AD3
:1025A00027EE267A86ED017A92F91410D37C43EA5D
:1025B000012307EE903AF8EEE77A67EEA67AC6EDC9
:1025C000027A059AD9F800309A4204D107B0BDE8E2
:1025D000F08F3046F5E7FEF7EBFE00BFC016002097
:1025E0000AE81C4100008038000080465CEFA643EA
:1025F00058A00B390000163E000800202C080020CF
:1026000010B51E491E4A0B78106882B0013B01903C
:10261000072B0AD8DFE803F012151C1F26290F0428
:1026200018480824012304830B7001991368994208
:1026300021D102B010BD08230B70F6E702230B7006
:10264000F3E711484FF48054032304830B70ECE745
:1026500004230B70E9E70C484FF4804405230483FE
:102660000B70E2E706230B70DFE70648042407231C
:1026700004830B70D9E7FEF79BFE00BF581A0020B9
:10268000000800200010024000040240000000008A
:1026900030B50C4B0C4918680C4A83B04FF4804598
:1026A00001904FF480504883042408204D835483C4
:1026B0005083019A1B689A4201D103B030BDFEF7E6
:1026C00077FE00BF00080020000402400010024016
:1026D0002DE9F04F4E4B4F4A9B694F499961A5B088
:1026E00007AE05AD80231768009331462A460024C3
:1026F0000CA84A4B2397CDE90766CDE90555CDE9EE
:1027000009440B9400F0BCFA0CA9454A4548434CD7
:10271000454DDFF83481DFF834B1DFF834A100F043
:10272000D7FA04F11C0604F16007A146504601F0F7
:1027300057FD2A682B69226063602A6A2B6BA260AE
:10274000E3606A686B69226163616A6A6B6BA261AC
:10275000E361AA68AB6922626362AA6AAB6BA26298
:10276000E362EA68EB6922636363EA6AEB6B2F4911
:10277000A263E36351F8043F0A6AB142A3EB020388
:102780000B64F7D1802249460CA800F0D1FA98F8E2
:102790000030002BCAD09BF8003033B3012BC5D1D9
:1027A000DFF8B0C02248614650F8042B51F8043FCE
:1027B000B84213440B60F7D11E4A13780133DBB2E1
:1027C000642B1370B2D11C495CF8043F1B4A82FB96
:1027D0000302DB17C3EB621341F8043B184B9C4523
:1027E000F2D1002388F80030A0E7194620221248D1
:1027F000039309F0BDFF039B12481946202209F0FC
:10280000B7FF0C49039B0B7001228BF800208DE76A
:10281000F01C00200008002040FD00085C1700208C
:1028200080FD000808120020F8160020581700202C
:102830009C17002039170020BC1700201F85EB5182
:10284000581700203C170020381700203A170020A6
:1028500030080020381700200000000000000000B1
:1028600070B502691E4D52882B6882B006460C4630
:102870001C4801939200002109F07AFF33695B88BC
:102880005BB1184AA11E002331F8020F42F8040B75
:102890003069408801339842F6D8202383F31188A9
:1028A00001F02EFC00F0FCFB00F08AFC0E4883686F
:1028B000002B0FDD00F014FC01F03AFC002383F341
:1028C0001188019A2B68094901209A42087004D1A5
:1028D00002B070BD01F0BCFCECE7FEF769FD00BF83
:1028E00000080020F816002030080020581A0020A8
:1028F00070B51F4D1F4C2E78236884B0012E0393B2
:1029000005D0039A23689A422FD104B070BD0021EC
:10291000284602F03DFC284602F0FAFC33462846E1
:10292000154A164902F0B4FC1549164802F0D0FFCA
:102930004FF496720021134803F062F80021114809
:1029400003F046F90F4803F0FBF831464FF482726A
:102950000C4803F055F80023009340220A4B0B4823
:102960004FF41E7101F03CF8CBE7FEF721FD00BFEC
:102970004C24002000080020D816002050FD00083C
:1029800090FD0008B42A0020D1260008E01700209E
:1029900030B50C4D0C4A2B680C4C83B000210193D0
:1029A000012311702370142001F072F82378002B9A
:1029B000F9D1019A2B689A4201D103B030BDFEF7DC
:1029C000F7FC00BF000800203A170020381700204D
:1029D00000B50F4B83B01868019002290CD0032971
:1029E0000CD001290B4818BF0020019A1B689A429D
:1029F0000BD103B05DF804FB0748F6E7032A96BF46
:102A00000648002000EBC200EFE7FEF7D1FC00BF54
:102A100000080020B0FE000850FE000860FF00081B
:102A200070B5154C82B02368019302291CD10D4664
:102A30000646202383F3118801F062FB00F030FB8F
:102A400030460E4A012104F04BFA29460C4A304622
:102A500004F046FA0B4804F043F800F041FB01F0A3
:102A600067FB002383F31188019A23689A4201D1FE
:102A700002B070BDFEF79CFC00080020D0FD0008ED
:102A800000FE00085C1A00200000000000000000AA
:102A900030B5134D134C2B68134883B0019303F0EA
:102AA00097FF1249104803F0C3FF226D936B23F484
:102AB000002393634FF47A7000F0EAFF20460C493C
:102AC00004F0BEF9226D936B43F400239363019AE3
:102AD0002B689A4201D103B030BDFEF769FC00BFFC
:102AE00000080020B02700205C1A002030FE0008FB
:102AF00040FE000800000000000000000000000090
:102B000000B5084B83B01A680192019A1B689A427B
:102B100005D1054803B05DF804EB01F0C1BCFEF738
:102B200047FC00BF000800203C0800200000000017
:102B300000B5084B83B01A680192019A1B689A424B
:102B400005D1054803B05DF804EB01F0E1BCFEF7E8
:102B50002FFC00BF000800203C08002000000000FF
:102B600070B50D4C82B0236801930D1E06460DDD35
:102B7000284602F02DF918B90C2333604FF0FF30CE
:102B8000019A23689A4205D102B070BD034800F053
:102B9000A7F9EDE7FEF70CFC0008002080FF000815
:102BA00000B5064B83B01A680192019A1B689A42DD
:102BB00002D103B05DF804FBFEF7FAFB0008002029
:102BC00000B5074B83B01A680192019A1B689A42BC
:102BD00004D103B05DF804EB01F062BCFEF7E8FB42
:102BE00000080020000000000000000000000000BD
:102BF00000B5074B83B01A680192019A1B689A428C
:102C000004D103B05DF804EB01F082BCFEF7D0FB09
:102C1000000800200000000000000000000000008C
:102C200000B5074B83B01A680192019A1B689A425B
:102C300004D103B05DF804EB01F01ABDFEF7B8FB58
:102C4000000800200000000000000000000000005C
:102C500010B5084B82B01C68019400240460019CEC
:102C60001B689C42C0E9011201D102B010BDFEF701
:102C70009FFB00BF000800200000000000000000D3
:102C80002DE9F0430E4D83B02C680194044699461B
:102C90000F46164610304C220021DDF8288009F03E
:102CA00067FDC4F80090019A2B68E6609A42C4E977
:102CB000018702D103B0BDE8F083FEF779FB00BFC6
:102CC00000080020000000000000000000000000DC
:102CD000F0B5144E83B001F110031746326801922B
:102CE0000446412218460D46002109F041FD3946AF
:102CF000402209F0D5FD6068FFF762FF236803B149
:102D0000AB652560A068FFF78BFF019A33689A4294
:102D100005D1606803B0BDE8F040FFF769BFFEF77A
:102D200047FB00BF0008002000000000000000007A
:102D3000F0B51C4E436883B005469342306801905D
:102D400006D20020019A33689A4229D103B0F0BD1F
:102D500014460F46A868FFF733FF22463946286815
:102D6000FEF7A6F8012385F85130E868FFF758FF11
:102D70006C6D84B123681868FFF722FF23689D609B
:102D800023685868FFF74CFF23681868FFF730FF87
:102D90006468002CEED1A868FFF72AFF0120D1E774
:102DA000FEF706FB00080020000000000000000005
:102DB00000B5064B83B01A680192019A1B689A42CB
:102DC00002D103B05DF804FBFEF7F2FA0008002020
:102DD000024B82B01B680193FEE700BF0008002091
:102DE00000B5044B04481B6883B0019300F078F8E9
:102DF000FEE700BF0008002090FF00080000000070
:102E0000024B82B01B680193FEE700BF0008002060
:102E1000F0B5294E294B3268294885B00024039229
:102E20009C60D968274A4FF6FF0529400A43DA60BB
:102E3000C2682549254D42F08072C2600A6842F09E
:102E400001020A6010202022D87783F8222000F0A7
:102E5000DFFA00F045FA01F073F801F091FF01F09C
:102E6000FFFF01F0C5F800F0FBF9402105F588608F
:102E700000F01EFD0127164BC36180F82070A86189
:102E800000F0A6F884F3118862B6AB69114A9A6122
:102E90004FF4C4713A46104B009405F59D6000F064
:102EA0009FFD039A33680D4981619A4201D105B0B3
:102EB000F0BDFEF77DFA00BF0008002000ED00E045
:102EC000F0ED00E00003FA05001000E0F01C002027
:102ED0000004002030010108012E0008B0FF0008A6
:102EE00000B5054B83B01B680193044672B6FEF72C
:102EF000BFFF024BDC62FEE700080020F01C002050
:102F00002DE9F047DFF890A0224DDAF8003082B0CA
:102F1000019300F055F9AB6993F8232012B1013AFF
:102F200083F823205A6ADFF8748001325A6200F075
:102F300047F9AB6AEA6901334245AB6220D0936836
:102F4000013B9360EC69A668D6B94FF0200923686D
:102F5000E768E660C3F804802368EB6100F0C0F81E
:102F600001F0E6F886F311882069B84789F31188E3
:102F700001F0C6F800F094F8EC69A368002BE6D0E5
:102F8000019ADAF800309A4202D102B0BDE8F08727
:102F9000FEF70EFAF01C0020000800200C1D002097
:102FA00010B5094C094A236882B0019351685368EF
:102FB0005B1A9842FBD8019A23689A4201D102B069
:102FC00010BDFEF7F5F900BF00080020001000E07A
:102FD00000B50E4A0E4B116B186883B0019009B909
:102FE000526B4AB1019A1B689A420CD1094803B04E
:102FF0005DF804EBFFF774BF019A1B689A4202D197
:1030000003B05DF804FBFEF7D3F900BFF01C00200D
:1030100000080020C0FF00080000000000000000C1
:1030200030B50B4C0B4D236B2A6883B001920BB962
:10303000636B13B10848FFF753FF019A2B68012116
:103040009A42616301D103B030BDFEF7B1F900BF10
:10305000F01C002000080020F0FF00080000000025
:1030600030B50C4C0C4D236B2A6883B0019253B9D8
:10307000636B002B07DD019A2B6800219A42616384
:1030800005D103B030BD0548FFF72AFFF3E7FEF78F
:103090008FF900BFF01C002000080020100001087C
:1030A00030B50B4C0B4D236B2A6883B0002B01927B
:1030B00001DD636B13B10848FFF712FF019A2B681B
:1030C00001219A42616301D103B030BDFEF770F96E
:1030D000F01C002000080020000001080000000093
:1030E00030B50C4C0C4D236B2A6883B0002B019239
:1030F0000ADD636B002B07DD019A2B6800219A42E1
:10310000616305D103B030BD0448FFF7E9FEF3E782
:10311000FEF74EF9F01C00200008002020000108F6
:1031200030B50F4D83B02B680193202383F31188B2
:103130000C4C236B002B01DB626B1AB10A48FFF7C2
:10314000CFFE236B01332363002383F31188019A9D
:103150002B689A4201D103B030BDFEF729F900BFB8
:1031600000080020F01C0020D0FF00080000000034
:1031700030B50F4D83B02B680193202383F3118862
:103180000C4C236B002B01DD626B1AB10A48FFF770
:10319000A7FE236B013B2363002383F31188019A6D
:1031A0002B689A4201D103B030BDFEF701F900BF90
:1031B00000080020F01C0020E0FF000800000000D4
:1031C00000B50F4A0F4B116B186883B000290190AE
:1031D00009DB526B002A06DD019A1B689A420CD16A
:1031E00003B05DF804FB019A1B689A4205D10648BA
:1031F00003B05DF804EBFFF773BEFEF7D9F800BF2C
:10320000F01C002000080020300001080000000031
:1032100000B50E4A0E4B116B186883B0019049B986
:10322000526B002A06DD019A1B689A420CD103B04A
:103230005DF804FB019A1B689A4205D1054803B06A
:103240005DF804EBFFF74CBEFEF7B2F8F01C00206F
:1032500000080020400001080000000000000000FD
:1032600010B5084A084B116882B0402401910199B9
:10327000126818199142C3E90E4001D102B010BD85
:10328000FEF796F800080020F01C00200000000067
:1032900010B51149114B0A6882B00192DA6B9C6A31
:1032A0001460DA6B9C695460DA6B846A9460DA6B40
:1032B00090F820001073DA6B03F5886010328242B8
:1032C00028BF03F14002DA63019A0B689A4201D1E8
:1032D00002B010BDFEF76CF800080020F01C0020C2
:1032E00010B50B4A0B4B116882B04FF0FF340191BF
:1032F00000219962019811685C6203F11C02884206
:10330000C3E9072201D102B010BDFEF751F800BF9A
:1033100000080020F01C0020000000000000000059
:103320002DE9F041184E82B00546306801900C46F8
:1033300017469846FFF744FF05B3FFB1F4B1C5E95E
:1033400003781248C3699A68944204D91B68A41A86
:103350009A68A242FAD32B605A686A6015605D6071
:10336000AC609968019D3268091B95424FF0FF34AB
:103370009960446206D102B0BDE8F0810448FFF7CD
:10338000AFFDDCE7FEF714F800080020F01C002079
:1033900050000108000000000000000000000000D4
:1033A00030B5164D83B004462B680193FFF708FF34
:1033B000ECB1E368BBB12268A0689368019903444B
:1033C0009360D4E900231A6020682B680C4A656872
:1033D000456099424FF000054FF0FF30E5605062C4
:1033E00009D103B030BD0748FFF77AFDE3E7054890
:1033F000FFF776FDDDE7FDF7DBFF00BF00080020EB
:10340000F01C002060000108000000000000000027
:1034100000B50A4A0A4B11681B6083B00020019175
:10342000019912685B609142C3E90433986002D14C
:1034300003B05DF804FBFDF7BBFF00BF00080020F0
:10344000F01C002000000000000000000000000050
:1034500030B5164D83B004462B680193FFF7B0FEDC
:10346000ECB194F82030B3B10F2B14D00022A16836
:103470000F4B84F820201B689A688A42FBD2236095
:103480005A686260146001992A685C609142204623
:1034900009D103B030BD0748FFF722FDE6E7054834
:1034A000FFF71EFDDDE7FDF783FF00BF00080020EA
:1034B000F01C002070000108000000000000000067
:1034C00070B5204D82B02B6801930446202383F30E
:1034D000118800F015FEFFF7E3FD94F82030072B6C
:1034E00011D8DFE803F0161010230A04100AA66AA8
:1034F000FFF766FEB3680133B360D4E900231A60B6
:10350000D4E900325A604FF0FF33A3622046FFF740
:103510009FFFFFF7E5FD00F00BFE002383F311880A
:10352000019A2B689A420BD102B070BDA36A0022A7
:103530001A604FF0FF33A3622046FFF789FFE8E7E8
:10354000FDF736FF0008002000000000000000002A
:10355000F0B5194E194C336883B007460193FFF755
:1035600057FEA569236885F82070142285F823206A
:103570001A68226001215460284683F82010A36154
:10358000FFF786FE2946A06900F06AFDEFF3098384
:10359000EA69643B9A4202D90948FFF7A1FC019A03
:1035A00033689A4206D1A069294603B0BDE8F040CD
:1035B000FCF77EBEFDF7FCFE00080020F01C00209A
:1035C0008000010800000000000000000000000072
:1035D000F0B5154C87B0236805930E460746FFF7F4
:1035E00017FE731C18D0114D114AAB69314668465D
:1035F000FFF796FE3846FFF7ABFFFFF7E1FD039BB1
:1036000013B16846FFF7CCFE059A2368A9699A4270
:10361000886A06D107B0F0BD3846FFF799FF034D21
:10362000F2E7FDF7C5FE00BF00080020F01C0020F7
:10363000C13400080000000000000000000000008D
:10364000F0B51E4D1E4E2B6883B0044601930F4605
:10365000FFF7DEFDB069A7628368A2689A421DD9B0
:10366000FFF7F6FE0123074684F82030B461FFF728
:103670000FFE3946204600F0F3FCEFF30983FA69A8
:10368000643B9A4214D8019A2B689A4214D1394665
:10369000204603B0BDE8F040FCF70ABE019A2B6853
:1036A0009A4209D1204603B0BDE8F040FFF7D0BEF2
:1036B0000448FFF715FCE6E7FDF77AFE0008002056
:1036C000F01C002080000108000000000000000045
:1036D00010B50E490E4B8A69086892F823101C68D1
:1036E0008068926882B0019449B9904234BF00204A
:1036F0000120019A1B689A4206D102B010BD904287
:1037000094BF00200120F4E7FDF752FEF01C0020DA
:103710000008002000000000000000000000000081
:1037200070B5184C184E2368A5691A682260546059
:10373000012283F8202082B01422316885F82320EA
:103740002846A3610191FFF783FE2846FFF7A0FDFD
:103750002946A06900F084FCEFF30983EA69643B21
:103760009A4202D90948FFF7BBFB019A33689A4293
:1037700006D1A069294602B0BDE87040FCF798BDAB
:10378000FDF716FEF01C0020000800208000010854
:1037900070B51C4D1C4E2A68AC6913682B60012162
:1037A00082B05D60002082F82010AA613268A168B2
:1037B00084F82000019200E01B689A688A42FBD8D6
:1037C00023605A686260204614605C60FFF760FD09
:1037D0002146A86900F044FCEFF30983E269643BE9
:1037E0009A4202D90948FFF77BFB019A33689A4253
:1037F00006D1A869214602B0BDE87040FCF758BD6B
:10380000FDF7D6FDF01C0020000800208000010814
:1038100010B50F4C82B023680193FFF7F9FCFFF756
:10382000CFFC0C4B1A689B6992689B689A42019A7C
:10383000236803D89A4208D102B010BD9A4204D13D
:1038400002B0BDE81040FFF7A3BFFDF7B1FD00BF18
:1038500000080020F01C0020000000000000000014
:1038600000B50E4A0E4B9269196892F8232083B076
:10387000019142B1019A1B689A420DD103B05DF8E3
:1038800004EBFFF785BF019A1B689A4204D103B08D
:103890005DF804EBFFF744BFFDF78AFDF01C002044
:1038A00000080020000000000000000000000000F0
:1038B000F0B51A4A1A4D02610446816083B01423A0
:1038C00050692E68616484F82330022700230121A7
:1038D000278484F82210C4E90F3304F16801A3613E
:1038E000019604F12C07636204F1500604F13003E1
:1038F00060610461C4E90C33E1613046E762546100
:1039000000F0B6FA304600F0D3FA019A2B689A42DA
:1039100002D1204603B0F0BDFDF74AFDF01C0020A7
:10392000000800200000000000000000000000006F
:1039300010B5094B82B01C680194884203D200F88C
:10394000012B8142FBD1019A1B689A4201D102B03E
:1039500010BDFDF72DFD00BF000800200000000095
:103960002DE9F043184E83B0346801940546DDF824
:1039700028900C4617469846FFF722FC15B1B4F57F
:10398000BC7F19D21148FFF7ABFAA4F164012944B6
:10399000E960C1F84080EB68019AC3F8449033684D
:1039A000E9680B4808669A420CD13946284603B0AC
:1039B000BDE8F043FFF77CBF7F2FE3D8B8F1000FDD
:1039C000E3D1DFE7FDF7F4FC00080020D000010898
:1039D000C902000800000000000000000000000014
:1039E0002DE9F04FDFF8A48087B0D8F80040DDF86B
:1039F0004090059407468A46934600F168060446BF
:103A0000FF2504F8015BA642FBD107EB0A05A5429E
:103A100004D9552604F8016BA542FBD1039320225B
:103A200082F3118800F03CFBFFF7FAFA039BCDF814
:103A300000905A4651463846FFF792FF002104464F
:103A4000FFF7FEFDFFF70CFB00F042FB0D4B1A6881
:103A50009A4204D0996993688A689A420BD30023EA
:103A600083F31188059AD8F800309A42204606D18F
:103A700007B0BDE8F08F0448FFF732FAEFE7FDF733
:103A800097FC00BFF01C00209000010800080020F7
:103A900030B5184C83B0236801930546202383F387
:103AA000118800F0FDFAFFF7BBFA15B91248FFF7CD
:103AB00017FA29460820FFF78BFDFFF7D1FA00F02F
:103AC00007FB0E4B1A689A4204D0996993688A687A
:103AD0009A4208D3002383F31188019A23689A42FB
:103AE00005D103B030BD0648FFF7FAF9F2E7FDF75C
:103AF0005FFC00BF00080020A0000108F01C0020AF
:103B0000900001080000000000000000000000001C
:103B1000F0B51C4F83B03B68019304460E4620234A
:103B200083F31188184D00F0BBFAFFF779FAA96A00
:103B3000331B0C1B9C4219D3FFF792FA00F0C8FA12
:103B40002B68AB4204D0AA699B6892689A4209D359
:103B5000002383F31188019A3B689A4230460FD1C3
:103B600003B0F0BD0948FFF7BBF9F1E7741A02D1C1
:103B70000748FFF7B5F921460820FFF729FDDBE7E5
:103B8000FDF716FC00080020F01C00209000010842
:103B9000A00001080000000000000000000000007C
:103BA00070B5164B164E9C693268E36AA06282B00B
:103BB00004F12C05AB42019207D01A68E262184664
:103BC000FFF746FCE36AAB42F7D194F821309B073C
:103BD00005D1D4E904231A61D4E904325A610F20D3
:103BE000FFF7B6FC019A33689A4205D1054802B046
:103BF000BDE87040FFF774B9FDF7DAFBF01C002058
:103C000000080020E00001080000000000000000A3
:103C100030B50C4C83B0236801930546202383F311
:103C2000118800F03DFAFFF7FBF9019A23689A42E8
:103C300005D1284603B0BDE83040FFF7B1BFFDF71E
:103C4000B7FB00BF000800200000000000000000DB
:103C5000F0B50D4D0D4E03682A68B76983B0044670
:103C6000019213B10A48FFF73BF927600320BC62B9
:103C7000FFF76EFC019A2B68B1699A42886A01D1FC
:103C800003B0F0BDFDF794FB00080020F01C0020FD
:103C9000F00001080000000000000000000000002B
:103CA000F0B5124D0368124A83B0044628680190AB
:103CB0000E46976913B10F48FFF712F966B12760F6
:103CC000019A2B68BC629A420ED13146032003B0A0
:103CD000BDE8F040FFF77CBC019A2B689A424FF098
:103CE000FF3001D103B0F0BDFDF762FB00080020FA
:103CF000F01C00200001010800000000000000008E
:103D0000F0B5124D04682B6883B00193B4B194F8F8
:103D10002030032B06460F460CD100233360019A56
:103D20002B68A7629A420FD1204603B0BDE8F0404D
:103D3000FFF78EBB0648FFF7D3F8EEE7019A2B6832
:103D40009A4201D103B0F0BDFDF732FB000800201C
:103D50002001010800000000000000000000000039
:103D600030B5104A83B01368019381B10E4B019DA9
:103D70009B69186044685C602360126843609542E8
:103D80000DD1042003B0BDE83040FFF721BC0199FC
:103D9000136899424FF0FF3001D103B030BDFDF7F9
:103DA00007FB00BF00080020F01C002000000000FE
:103DB00070B5124D04682B6882B0A042019315D0F3
:103DC00023680360586094F82030042B0E4602D01C
:103DD0000B48FFF785F8019A2B68A6629A420BD12F
:103DE000204602B0BDE87040FFF732BB019A2B6855
:103DF0009A4201D102B070BDFDF7DAFA0008002046
:103E0000B0000108000000000000000000000000F9
:103E10002DE9F041DFF850800468D8F8003082B016
:103E2000A042019313D00F4F05460E4623682B6026
:103E30005D6094F82030042B02D03846FFF750F82C
:103E4000A6622046FFF704FB2C68A542EED1019A3A
:103E5000D8F800309A4202D102B0BDE8F081FDF7F7
:103E6000A7FA00BFB0000108000800200000000011
:103E700030B50B4B83B01A6801924FF0FF320260ED
:103E800001991A680024002300259142C0E90445E5
:103E9000C0E90133C36001D103B030BDFDF788FA3A
:103EA00000080020000000000000000000000000EA
:103EB00000B5084B084A196883B001915168019A0E
:103EC0001B6881609A4202D103B05DF804FBFDF7E4
:103ED0006FFA00BF00080020001000E000000000A2
:103EE000F0B51449144B0A68846883B00192134AF0
:103EF0005B68D2F8A864C2681B1BD0E90445013294
:103F00009B1BC26042688360E61845F1000793423C
:103F1000C0E9046709D80268934238BF0360019A78
:103F20000B689A4203D103B0F0BD4360F7E7FDF799
:103F30003FFA00BF00080020001000E0F01C002045
:103F400030B5114D114C2B6889B04FF0FF310793FC
:103F5000002300226846C4F8A834CDE90133039356
:103F60000023CDE904230091FFF7A2FF6846FFF785
:103F7000B7FF079A2B680299C4F8A8149A4201D196
:103F800009B030BDFDF714FA00080020F01C002035
:103F90002DE97048134E144B326883B001925B6870
:103FA0008B60D0E902411B1BD0E90445426814EB49
:103FB000030B45F1000C01319342C0E90231C0E925
:103FC00004BC0AD80268934238BF0360019A336880
:103FD0009A4204D103B0BDE870884360F6E7FDF76C
:103FE000E7F900BF00080020001000E0000000001A
:103FF00030B50D4D0D4C2B6883B004F597600193DF
:104000000023C4F8B034C4F8B434FFF731FF019A88
:104010002B689A4206D104F59A6003B0BDE830409F
:10402000FFF726BFFDF7C4F900080020F01C0020B0
:1040300000B50949094A0B6883B001930198D2F889
:10404000B034096801338842C2F8B03402D103B0F9
:104050005DF804FBFDF7ACF900080020F01C00201F
:1040600070B50D4C0D4A236882B00193019DD2F8C2
:10407000B43424680133A542C2F8B43409D10E46E1
:1040800000F1500106F1500002B0BDE87040FFF7AA
:104090007FBFFDF78DF900BF00080020F01C002055
:1040A00000B5084B83B01A680192019A1B689A42C6
:1040B00005D1054803B05DF804EBFFF7F9BEFDF745
:1040C00077F900BF00080020A821002000000000B0
:1040D00000B5084B83B01A680192019A1B689A4296
:1040E00005D1054803B05DF804EBFFF7F9BEFDF715
:1040F0005FF900BF00080020A82100200000000098
:1041000000B5084B83B01A680192019A1B689A4265
:1041100005D1054803B05DF804EBFFF7C9BEFDF714
:1041200047F900BF00080020C02100200000000067
:1041300000B5084B83B01A680192019A1B689A4235
:1041400005D1054803B05DF804EBFFF7C9BEFDF7E4
:104150002FF900BF00080020C0210020000000004F
:1041600070B51B4D82B004462B680193FFF750F8E1
:1041700044B3A3682268002B10DBA24203D0154889
:10418000FEF7AEFEA368013B002BA3600CDB002012
:10419000019A2B689A4219D102B070BDA242EED0AA
:1041A000013B002BA360F2DA0B4EB3699C621C60EA
:1041B00062685A60052013606360FFF7C9F9B3694C
:1041C000986AE5E70348FEF78BFED2E7FDF7F0F8C3
:1041D0000008002060010108F01C00200000000021
:1041E00030B5164C83B0236801930546202383F332
:1041F0001188FFF755FFFEF713FF2846FFF7B0FFC2
:104200000546FEF72DFFFFF763FF0D4B1A689A4234
:1042100004D0996993688A689A4209D3002383F38A
:104220001188019A23689A42284605D103B030BD0F
:104230000448FEF755FEF1E7FDF7BAF80008002044
:10424000F01C0020500101080000000000000000E8
:1042500030B51C4D83B004462B680193FEF7B0FFC8
:104260004CB3A3682268002B0FDBA24203D0164890
:10427000FEF736FEA3680133002BA3600BDD019A25
:104280002B689A421BD103B030BDA242EFD001335C
:10429000002BA360F3DC20680199036823602A687F
:1042A0005C6091424FF00003836208D103B0BDE827
:1042B0003040FFF7CDB80448FEF712FED1E7FDF716
:1042C00077F800BF0008002070010108000000001E
:1042D00030B50B4D83B02B680193044650B1246078
:1042E00001992A68646000239142A360236105D18B
:1042F00003B030BD0348FEF7F3FDF0E7FDF758F8D3
:1043000000080020900101080000000000000000EB
:10431000F0B55D4E5D4B32689D6983B004460192F5
:10432000FEF776FF002C00F08480A0682369002847
:1043300043D0002B40F39780854276D0AA688368EB
:104340009A4208D990F820308260062B40D0072B83
:1043500073D0002B5DD02746234603E09968AA68F6
:10436000914233D31B689C42F8D12F607B686B600D
:1043700006201D607D60AC62FFF7EAF8A368AB42DF
:1043800002D04348FEF7ACFD2B6CA34202D040485C
:10439000FEF7A6FD2369012B05D1019A33689A42E5
:1043A0006FD103B0F0BD019A33689A4269D13848A1
:1043B00003B0BDE8F040FEF793BD002B58D10133A8
:1043C000A56023612B6CE3602C64E6E71F46CCE715
:1043D000D0E900231A60D0E900325A60876A3B4670
:1043E00003E099688268914247D31B689F42F8D1E5
:1043F00007607B68436018607860836AAA68986881
:1044000083689342A7D290F820308260062B9ED119
:10441000DEE7D0E90023012180F820101A60D0E9FE
:1044200000325A60FFF714F895E7236901332361DE
:10443000B3E71748FEF754FD77E7D0E900231A6089
:10444000D0E900325A60876A3B4603E09968826887
:10445000914214D31B689F42F8D107607B68436088
:104460001860786077E70A48FEF73AFDA06863E7CE
:104470000748FEF735FD2369A1E71F46B8E71F4649
:10448000EBE7FCF795FF00BF00080020F01C0020C0
:10449000A001010800000000000000000000000072
:1044A00030B5154C83B0236801930546202383F370
:1044B0001188FFF7F5FDFEF7B3FD2846FFF728FF4B
:1044C000FEF7CEFDFFF704FE0C4B1A689A4204D0AB
:1044D000996993688A689A4208D3002383F3118804
:1044E000019A23689A4205D103B030BD0448FEF713
:1044F000F7FCF2E7FCF75CFF00080020F01C00204E
:104500008001010800000000000000000000000021
:104510002DE9F043DFF800813C4FD8F80030BE6948
:1045200083B005460193002864D0202383F31188CB
:10453000FFF7B6FDFEF774FD336C002B5ED09B6871
:10454000B34202D03248FEF7CBFC2B69002B49DD89
:10455000013B2B615BBB336CAB4202D02C48FEF7B6
:10456000BFFCEB683364FEF753FE2B689D423ED0E0
:10457000D6E910495CB1FEF74BFE23689C4203D09C
:104580009B68994538BF9946E468002CF3D1C6F87A
:1045900008902B6801222A611A682A605560AB6076
:1045A0001A6CEA6018461D640021FFF749F8FEF70F
:1045B00057FDFFF78DFD3B68BB4204D0BA699B688D
:1045C00092689A420AD3002383F31188019AD8F89B
:1045D00000309A4217D103B0BDE8F0830D48FEF7D2
:1045E0007FFCF0E70A48FEF77BFC2B69B0E700236D
:1045F000AB60DCE70648FEF773FC96E70448FEF77D
:104600006FFC336C9BE7FCF7D3FE00BFF01C00206F
:10461000B00101088001010800080020000000002E
:1046200070B5114E82B0044633680193FEF7C8FDA1
:104630009CB12068A0420AD06FF001050368236096
:104640005C60FEF705FF85622068A042F6D1019A02
:1046500033689A4205D102B070BD0448FEF740FCB1
:10466000E7E7FCF7A5FE00BF00080020D001010825
:1046700030B5164C83B0236801930546202383F39D
:104680001188FFF70DFDFEF7CBFC2846FFF7C8FFAA
:10469000FFF7BEF8FEF7E4FCFFF71AFD0C4B1A68B3
:1046A0009A4204D0996993688A689A4208D3002391
:1046B00083F31188019A23689A4205D103B030BD73
:1046C0000448FEF70DFCF2E7FCF772FE000800203C
:1046D000F01C0020C00101080000000000000000E4
:1046E0002DE9F0431D4F83B03C68019491460C4680
:1046F0009846064660B359B3202383F31188FFF729
:10470000CFFC174DFEF78CFC336823603460AB6937
:1047100063600023C4E90338C4F80890FEF7A0FCE6
:10472000FFF7D6FC2B68AB4204D0AA699B6892685D
:104730009A4209D3002383F31188019A3B689A4275
:104740000AD103B0BDE8F0830648FEF7C9FBF1E7E4
:104750000548FEF7C5FBCFE7FCF72AFE000800205E
:10476000F01C0020F0010108000201080000000018
:1047700070B5184E82B00446336801930D46FEF7BB
:104780001FFD0CB3E16B94F8203029430A2BE16341
:1047900016D00B2B05D0019A33689A4218D102B07B
:1047A00070BDA36A8B43F6D1019A336800219A4207
:1047B000A1620DD1204602B0BDE87040FEF748BEB0
:1047C000A36A1942F0D1E6E70348FEF789FBD9E76F
:1047D000FCF7EEFD00080020400201080000000088
:1047E000F0B5134F83B006463B6801930D46FEF7C4
:1047F000E7FCB6B13468A6420DD0E3682B43E36012
:1048000015B12269134203D0D4E90101FFF7B0FFCB
:104810002468A642F1D1019A3B689A4205D103B0BF
:10482000F0BD0448FEF75CFBE4E7FCF7C1FD00BF08
:104830000008002020020108000000000000000025
:1048400070B50C4CC16082B0266801960A440060C5
:10485000019E02612268069D4060C0E905119642F2
:104860004FF00001C3618160056201D102B070BDEB
:10487000FCF79EFD00080020000000000000000082
:1048800030B50D4D83B02B6801930446FEF798FCBC
:1048900001992A68E368A36100209142A0606361E6
:1048A00007D120466FF0010103B0BDE83040FFF7AB
:1048B000AFBAFCF77DFD00BF00080020000000003B
:1048C00070B5164D82B004462B6801930E46FEF774
:1048D00077FCFEF775FCD4E905239A42A36816D04D
:1048E0000133511CA36061611670D4E904329A420D
:1048F0000AD220460021FFF75BFA0020019A2B68BC
:104900009A4209D102B070BDE3686361F1E7002B00
:10491000E6D06FF00300F1E7FCF74AFD0008002045
:10492000F0B5234F83B03B68019304460E46202325
:1049300083F31188FFF7B4FBFEF772FBE36943B121
:104940002046984705E031462046FFF709FA051E44
:1049500010DBFEF735FCA368002BF4D0A1692069B9
:104960004A1C013B8242A360A26128BFE3680D7824
:1049700028BFA361FEF774FBFFF7AAFB0D4B1A6873
:104980009A4204D0996993688A689A4209D30023AD
:1049900083F31188019A3B689A42284605D103B0F7
:1049A000F0BD0548FEF79CFAF1E7FCF701FD00BFFA
:1049B00000080020F01C0020500201080000000048
:1049C0002DE9F04FDFF8F490044685B0D9F80000E7
:1049D00003908A461D46D4F81C809346002A60D076
:1049E000202383F311880193FFF75AFBFEF718FB8E
:1049F0002F4E0027B8F1000F07D02046C04704E033
:104A000029462046FFF7ACF960BBFEF7D9FBA36847
:104A1000002BF5D0A269013B511CA161A360137862
:104A20000AF8013B2369A2699A4224BFE368A361A3
:104A3000FEF716FBFFF74CFB3368B34204D0B269B4
:104A40009B6892689A4228D3002383F31188013728
:104A5000BB4519D0019B83F31188FFF721FBFEF7BB
:104A6000DFFAC7E7FEF7FCFAFFF732FB3368B34221
:104A700007D0B2699B6892689A4202D20D48FEF74D
:104A80002FFA002383F31188039AD9F800309A4251
:104A900038460AD105B0BDE8F08F0648FEF720FA87
:104AA000D2E70548FEF71CFA9AE7FCF781FC00BF45
:104AB000F01C0020500201086002010800080020DC
:104AC00070B50B4D82602E68C16082B0C0E90000F5
:104AD00001960A44019E02612A68069C9642C0E93A
:104AE0000511C0E9073401D102B070BDFCF760FCCC
:104AF000000800200000000000000000000000008E
:104B000030B50D4D83B004462B680193FEF758FB7A
:104B1000D4E9032301982968A2619B1A8842626143
:104B2000A36007D120466FF0010103B0BDE830401B
:104B3000FFF76EB9FCF73CFC000800200000000005
:104B40002DE9F0412E4F82B03B6801930446884620
:104B50001646202383F31188FFF7A2FAFEF760FAC6
:104B600005E031462046FFF7FBF8051E2DDBFEF77A
:104B700027FBA368002BF4D06269013B511C6161E3
:104B8000A36082F80080D4E904329A4224BFE3682B
:104B90006361E3690BB120469847FEF761FAFFF7BE
:104BA00097FA184B1A689A4204D0996993688A68F0
:104BB0009A421ED3002585F31188019A3B689A42D8
:104BC00028461AD102B0BDE8F081FEF749FAFFF796
:104BD0007FFA0C4B1A689A4207D0996993688A68E1
:104BE0009A4202D20848FEF77BF9002383F311882A
:104BF000E3E70548FEF774F9DCE7FCF7D9FB00BFF3
:104C000000080020F01C00205002010800000000F5
:104C100070B5154E82B0044633680193FEF7D0FAA2
:104C2000FEF7CEFAD4E905329342A36815D0206985
:104C3000511C0133A360A161814215780AD220463C
:104C40000021FFF7B5F82846019A33689A4209D146
:104C500002B070BDE368A361F1E7002BE7D06FF00D
:104C60000200F1E7FCF7A4FB0008002000000000B0
:104C70002DE9F04F04463B48D4F81C90006885B0FD
:104C80000D46039001931646002A61D04FF0200A8A
:104C90008AF31188FFF704FAFEF7C2F94FF0000813
:104CA000314FC346FEF78CFAA368002B32D06269FD
:104CB000013B511C6161A3602B781370D4E904326D
:104CC0009A4224BFE36863610135B9F1000F01D056
:104CD0002046C847FEF7C4F9FFF7FAF93B68BB4224
:104CE00007D0BA699B6892689A4202D21F48FEF7C1
:104CF000F7F88BF31188013E08F101081FD08AF301
:104D00001188FFF7CDF9FEF78BF9FEF759FAA36882
:104D1000002BCCD101992046FFF722F80028C1D002
:104D2000FEF79EF9FFF7D4F93B68BB4204D0BA699D
:104D30009B6892689A420FD3002383F31188094B32
:104D4000039A1B689A4240460AD105B0BDE8F08F2D
:104D50000748FEF7C5F899E70448FEF7C1F8EBE706
:104D6000FCF726FB00080020F01C00205002010880
:104D700070020108000000000000000000000000B8
:104D800030B50B490B4A0B680B4D0C4C83B022F02D
:104D90000702019301980A4B09682A6023F0070370
:104DA0008842236001D103B030BDFCF701FB00BF96
:104DB00000080020D72B002064230020602300205F
:104DC00000000220000000000000000000000000C1
:104DD00070B51C4E82B0336801930446202383F3E0
:104DE0001188FFF75DF9FEF71BF9FEF7E9F9164A9E
:104DF000164B15681B68E01D20F007005B1B9842EE
:104E00009ABF401910600025FEF72AF9FFF760F9F4
:104E10000F4B1A689A4204D0996993688A689A423B
:104E200009D3002383F31188019A33689A422846F4
:104E300005D102B070BD0748FEF752F8F1E7FCF764
:104E4000B7FA00BF00080020642300206023002080
:104E5000F01C00209002010800000000000000008B
:104E600000B50B4B0B481A6883B0019201991A6880
:104E7000094B036091424FF00003C0E9023305D1B2
:104E8000103003B05DF804EBFFF722BAFCF790FA9C
:104E90000008002068230020D14D00080000000019
:104EA00080B50D4A0D4982B000AF13687B604B6836
:104EB00023F001034B60EFF30983683383F3098820
:104EC000002383F3118879681368994202D1083767
:104ED000BD4680BDFCF76CFA0008002030EF00E012
:104EE000B0B5194C82B000AF23687B60202383F3F8
:104EF0001188164B5B6813F4006308D183F31188A3
:104F00007A6823689A421DD10837BD46B0BDF1EEDC
:104F1000103AEFF309854FF080720D4B45F84C2C99
:104F2000DB6845F8083CA5F1680383F30988FEF7C0
:104F3000CFFB18B1074B45F8503CE1E7064B45F86D
:104F4000503CDDE7FCF734FA0008002000ED00E0FB
:104F500030EF00E0E1020008F40200080000000069
:104F600010B5184C82B02368019302F029FF16484F
:104F700004F0BEFB00F0D4F800F0EAF900F030FADB
:104F800000F05EFA00F08CFA00F0BAFA00F040FC93
:104F900000F06EFC01F0BCFA01F0C2F901F0D0FEA5
:104FA00001F016FF01F004FD06F03AFE019A2368B5
:104FB0009A4204D102B0BDE8104001F0F1BEFCF706
:104FC000F7F900BF000800204009010800000000B8
:104FD000F0B51A4D83B02B68019391420E461446EA
:104FE000074619D38B1A1F2B16D806F01F03581C1F
:104FF0006209012376098340B24203F1FF3304F0D2
:105000001F0457F822000BD31840E040019A2B6888
:105010009A4210D103B0F0BD0948FDF761FFE4E703
:1050200057F82610C4F120020B4020FA04F403FACA
:1050300002F02043EAE7FCF7BBF900BF00080020BC
:10504000A0020108000000000000000000000000B5
:10505000F0B51D4E83B033680193054670B37E22D0
:105060007F212846FFF7B4FF80B1012806D0002039
:10507000019A33689A4225D103B0F0BD2846302208
:105080004521FFF7A5FF01308002F1E73E224921CB
:105090002846FFF79DFF2F22044631212846FFF7BF
:1050A00097FF5022074653212846FFF791FF01340E
:1050B00002370938BC4004FA00F0D9E70348FDF78D
:1050C0000FFFCCE7FCF774F900080020C0020108CC
:1050D000F0B5104D83B02B680193044698B194F855
:1050E000D63094F8D770019994F8D4602A6894F86F
:1050F000D5001B0403EB07633344914203EB00200C
:1051000005D103B0F0BD0448FDF7EAFEE7E7FCF780
:105110004FF900BF00080020E00201080000000075
:1051200000B5074B83B01A680192019A1B689A4236
:1051300004D103B05DF804EB02F002BFFCF738F9CC
:105140000008002000000000000000000000000037
:1051500000B50C4B83B01A680192012202700199CC
:105160001A6800239142C0E90133C0E90333436167
:1051700005D1183003B05DF804EBFFF7A9B8FCF7D0
:1051800017F900BF00080020000000000000000028
:1051900070B51D4D82B02B6801930E46044668B36E
:1051A000202383F31188FEF77BFFFDF739FF237877
:1051B000013B012B02D91548FDF792FE204666609F
:1051C00002F00EFF02232370FDF74AFFFEF780FF77
:1051D0000F4B1A689A4204D0996993688A689A4278
:1051E00008D3002383F31188019A2B689A4209D1CE
:1051F00002B070BD0748FDF773FEF2E70348FDF704
:105200006FFECDE7FCF7D4F800080020100301087A
:10521000F01C002000030108000000000000000056
:105220002DE9F041174D82B00446286801900E46E2
:1052300090461F46FDF7C4FF3CB136B1B8F1000FF0
:1052400003D0012F04D0FB0702D50F48FDF748FE1D
:105250002378022B05D0043B012B02D90A48FDF725
:105260003FFE03232370019A2B6826619A42C4E90A
:10527000028705D1204602B0BDE8F04102F030BF00
:10528000FCF796F800080020200301080000000049
:105290002DE9F041184C82B02568019598460546E5
:1052A0000E461746202383F31188FEF7F9FEFDF71B
:1052B000B7FE43463A4631462846FFF7B1FFFDF7B1
:1052C000CFFEFEF705FF0D4B1A689A4204D099698C
:1052D00093688A689A4209D3002383F31188019A5C
:1052E00023689A4206D102B0BDE8F0810448FDF778
:1052F000F7FDF1E7FCF75CF800080020F01C002047
:105300000003010800000000000000000000000091
:1053100030B50B4C83B023680193054650B1019A18
:1053200023689A420AD105F1180003B0BDE8304065
:10533000FFF7B6B80348FDF7D3FDF0E7FCF738F800
:1053400000080020400301080000000000000000E9
:1053500000B5074B83B01A680192019A1B689A4204
:1053600004D103B05DF804EB03F00ABDFCF720F8AC
:105370000008002000000000000000000000000005
:1053800030B5134B83B01A68019201220270019C60
:105390001968002200F1180300F11C0542608361C6
:1053A00000F1200200F12403C561026200F128052A
:1053B00000F1080243628C4200F110038562C0E9EB
:1053C0000222C0E9043301D103B030BDFBF7F0FF86
:1053D00000080020000000000000000000000000A5
:1053E00000B5074B83B01A680192019A1B689A4274
:1053F00004D103B05DF804EB04F05AB9FBF7D8FF11
:105400000008002000000000000000000000000074
:1054100000B50A4B83B01A6801920122027001990B
:105420001A6800239142C0E9043305D1183003B053
:105430005DF804EBFEF74CBFFBF7BAFF0008002055
:1054400000B5074B83B01A680192019A1B689A4213
:1054500004D103B05DF804EB03F0B2BCFBF7A8FF86
:105460000008002000000000000000000000000014
:1054700000B5084B83B01A68019201220270019AAC
:105480001B6800219A42416002D103B05DF804FB21
:10549000FBF78EFF00080020000000000000000065
:1054A00000B5074B83B01A680192019A1B689A42B3
:1054B00004D103B05DF804EB05F032BFFBF778FFD1
:1054C00000080020000000000000000000000000B4
:1054D00000B5084B83B01A68019201220270019A4C
:1054E0001B6800219A42416002D103B05DF804FBC1
:1054F000FBF75EFF00080020000000000000000035
:1055000000B5074B83B01A680192019A1B689A4252
:1055100004D103B05DF804EB04F0E2BBFBF748FFF5
:105520000008002000000000000000000000000053
:1055300000B50A4B83B01A68019201220270019AE9
:105540001B6800219A42416005D10C3003B05DF820
:1055500004EBFEF7BDBEFBF72BFF00BF00080020E9
:1055600070B51F4D82B02B6801930E46044680B380
:1055700079B323785A1E012A04D9052B02D0194881
:10558000FDF7AEFC202383F31188FEF789FDFDF7BC
:1055900047FD2046666004F0CBFB02232370FDF735
:1055A0005FFDFEF795FD104B1A689A4204D0996989
:1055B00093688A689A4208D3002383F31188019A7A
:1055C0002B689A4209D102B070BD0848FDF788FCEB
:1055D000F2E70448FDF784FCCBE7FBF7E9FE00BFE8
:1055E0000008002060030108F01C0020500301089F
:1055F00030B51D4D83B02B680193044670B32378FA
:105600005A1E012A04D9052B02D01848FDF768FC60
:10561000202383F31188FEF743FDFDF701FD2046AB
:1056200004F0C6FC01232370FDF71AFDFEF750FDC0
:105630000F4B1A689A4204D0996993688A689A4213
:1056400008D3002383F31188019A2B689A4209D169
:1056500003B030BD0748FDF743FCF2E70348FDF710
:105660003FFCCCE7FBF7A4FE000800207003010814
:10567000F01C0020500301080000000000000000A2
:1056800030B5094D83B02B680193044630B1019ABF
:105690002B68A0689A4205D103B030BD0348FDF7DE
:1056A0001FFCF4E7FBF784FE0008002080030108DC
:1056B0002DE9F04F304E87B034680594DDF840B0E6
:1056C0000D4690461F46DDE9119A044608B10029AF
:1056D0003DD12A48FDF704FC2378022B02D027484D
:1056E000FDF7FEFB202383F31188FEF7D9FCFDF7BD
:1056F00097FC4FF0000C0320C4F808C0424629462E
:1057000020703B462046CDE9019ACDF800B004F068
:10571000A7FC431C0CBF0523022323700546FDF79D
:105720009FFCFEF7D5FC164B1A689A4204D0996983
:1057300093688A689A4218D3002383F31188059AE4
:1057400033689A42284614D107B0BDE8F08F002B89
:10575000BFD0002ABDD0B9F1000F02D0BBF1000FBD
:10576000B7D0BAF1000FB7D1B3E70648FDF7B8FBE1
:10577000E2E7FBF71DFE00BF0008002090030108D0
:10578000F01C002050030108000000000000000091
:1057900030B50B4C83B023680193054650B1019A94
:1057A00023689A420AD105F10C0003B0BDE83040ED
:1057B000FEF776BE0348FDF793FBF0E7FBF7F8FD35
:1057C00000080020B00301080000000000000000F5
:1057D00030B50B4C83B023680193054650B1019A54
:1057E00023689A420AD105F10C0003B0BDE83040AD
:1057F000FEF78EBE0348FDF773FBF0E7FBF7D8FD1D
:1058000000080020C00301080000000000000000A4
:1058100000B5074B83B01A680192019A1B689A423F
:1058200004D103B05DF804EB05F09ABCFBF7C0FDB2
:105830000008002000000000000000000000000040
:1058400000B5084B83B01A68019201220270019AD8
:105850001B6800219A42416002D103B05DF804FB4D
:10586000FBF7A6FD0008002000000000000000007B
:1058700000B5074B83B01A680192019A1B689A42DF
:1058800004D103B05DF804EB05F03ABEFBF790FDE0
:1058900000080020000000000000000000000000E0
:1058A00000B5094B83B01A68019201220270019978
:1058B0001A68002391424360C360037402D103B0AD
:1058C0005DF804FBFBF774FD0008002000000000F9
:1058D00070B5214E82B0336801930D46044600280E
:1058E00033D0002931D0202383F31188FEF7D8FB71
:1058F000FDF796FB2378013B012B02D91748FDF7F2
:10590000EFFA65606B68A360204605F039FE00225F
:105910000223E2602370FDF7A3FBFEF7D9FB104BD7
:105920001A689A4204D0996993688A689A4208D39F
:10593000002383F31188019A33689A4209D102B097
:1059400070BD0848FDF7CCFAF2E70448FDF7C8FA45
:10595000C9E7FBF72DFD00BF00080020E0030108A8
:10596000F01C0020D003010800000000000000002F
:1059700070B51C4E82B0336801930C46054650B397
:10598000202383F31188FEF78BFBFDF749FB2B786F
:10599000022B02D01448FDF7A3FAAB69AC60013CBE
:1059A000DC62FDF75DFBFEF793FB104B1A689A4231
:1059B00004D0996993688A689A4208D3002383F3D4
:1059C0001188019A33689A4209D102B070BD084823
:1059D000FDF786FAF2E70448FDF782FAD0E7FBF715
:1059E000E7FC00BF00080020F0030108F01C0020C5
:1059F000D0030108000000000000000000000000CB
:105A0000F0B5214E83B0336801930D461746044626
:105A100078B3037C8B422CD9202383F31188FEF7C3
:105A20003FFBFDF7FDFA2378022B02D01748FDF764
:105A300057FAE3680122AA401343E3603A46294635
:105A4000204605F085FEFDF70BFBFEF741FB104BF2
:105A50001A689A4204D0996993688A689A420CD36A
:105A6000002383F31188019A33689A4209D103B065
:105A7000F0BD0648FDF734FACEE70648FDF730FAE8
:105A8000EEE7FBF795FC00BF0008002000040108CA
:105A9000F01C0020D00301080000000000000000FE
:105AA00070B5204E82B0336801930D46044678B33A
:105AB000037C8B422CD9202383F31188FEF7F0FA64
:105AC000FDF7AEFA2378022B02D01748FDF708FA4B
:105AD000E3680122AA4023EA0203E3602946204644
